{
  "_format": "hh-sol-artifact-1",
  "contractName": "ChessTournament",
  "sourceName": "contracts/ChessTournament.sol",
  "abi": [
    {
      "inputs": [
        {
          "internalType": "address",
          "name": "_chessGameContract",
          "type": "address"
        }
      ],
      "stateMutability": "nonpayable",
      "type": "constructor"
    },
    {
      "inputs": [],
      "name": "AlreadyRegistered",
      "type": "error"
    },
    {
      "inputs": [],
      "name": "EntryFeeTooHigh",
      "type": "error"
    },
    {
      "inputs": [],
      "name": "EntryFeeTooLow",
      "type": "error"
    },
    {
      "inputs": [],
      "name": "IncorrectEntryFee",
      "type": "error"
    },
    {
      "inputs": [],
      "name": "InvalidEntryFeeLimits",
      "type": "error"
    },
    {
      "inputs": [],
      "name": "InvalidMaxPlayers",
      "type": "error"
    },
    {
      "inputs": [],
      "name": "InvalidName",
      "type": "error"
    },
    {
      "inputs": [],
      "name": "InvalidPlatformFee",
      "type": "error"
    },
    {
      "inputs": [],
      "name": "InvalidWinner",
      "type": "error"
    },
    {
      "inputs": [],
      "name": "MatchAlreadyComplete",
      "type": "error"
    },
    {
      "inputs": [
        {
          "internalType": "address",
          "name": "owner",
          "type": "address"
        }
      ],
      "name": "OwnableInvalidOwner",
      "type": "error"
    },
    {
      "inputs": [
        {
          "internalType": "address",
          "name": "account",
          "type": "address"
        }
      ],
      "name": "OwnableUnauthorizedAccount",
      "type": "error"
    },
    {
      "inputs": [],
      "name": "ReentrancyGuardReentrantCall",
      "type": "error"
    },
    {
      "inputs": [],
      "name": "StartTimeInPast",
      "type": "error"
    },
    {
      "inputs": [],
      "name": "TournamentNotActive",
      "type": "error"
    },
    {
      "inputs": [],
      "name": "TournamentNotInRegistration",
      "type": "error"
    },
    {
      "anonymous": false,
      "inputs": [
        {
          "indexed": false,
          "internalType": "uint256",
          "name": "newMinFee",
          "type": "uint256"
        },
        {
          "indexed": false,
          "internalType": "uint256",
          "name": "newMaxFee",
          "type": "uint256"
        }
      ],
      "name": "EntryFeeLimitsUpdated",
      "type": "event"
    },
    {
      "anonymous": false,
      "inputs": [
        {
          "indexed": true,
          "internalType": "uint256",
          "name": "tournamentId",
          "type": "uint256"
        },
        {
          "indexed": true,
          "internalType": "uint256",
          "name": "matchId",
          "type": "uint256"
        },
        {
          "indexed": false,
          "internalType": "address",
          "name": "winner",
          "type": "address"
        }
      ],
      "name": "MatchCompleted",
      "type": "event"
    },
    {
      "anonymous": false,
      "inputs": [
        {
          "indexed": true,
          "internalType": "uint256",
          "name": "tournamentId",
          "type": "uint256"
        },
        {
          "indexed": true,
          "internalType": "uint256",
          "name": "matchId",
          "type": "uint256"
        },
        {
          "indexed": false,
          "internalType": "address",
          "name": "player1",
          "type": "address"
        },
        {
          "indexed": false,
          "internalType": "address",
          "name": "player2",
          "type": "address"
        }
      ],
      "name": "MatchCreated",
      "type": "event"
    },
    {
      "anonymous": false,
      "inputs": [
        {
          "indexed": true,
          "internalType": "address",
          "name": "previousOwner",
          "type": "address"
        },
        {
          "indexed": true,
          "internalType": "address",
          "name": "newOwner",
          "type": "address"
        }
      ],
      "name": "OwnershipTransferred",
      "type": "event"
    },
    {
      "anonymous": false,
      "inputs": [
        {
          "indexed": false,
          "internalType": "uint256",
          "name": "newFee",
          "type": "uint256"
        }
      ],
      "name": "PlatformFeeUpdated",
      "type": "event"
    },
    {
      "anonymous": false,
      "inputs": [
        {
          "indexed": true,
          "internalType": "uint256",
          "name": "tournamentId",
          "type": "uint256"
        },
        {
          "indexed": true,
          "internalType": "address",
          "name": "player",
          "type": "address"
        }
      ],
      "name": "PlayerRegistered",
      "type": "event"
    },
    {
      "anonymous": false,
      "inputs": [
        {
          "indexed": true,
          "internalType": "uint256",
          "name": "tournamentId",
          "type": "uint256"
        },
        {
          "indexed": false,
          "internalType": "address",
          "name": "player",
          "type": "address"
        },
        {
          "indexed": false,
          "internalType": "uint256",
          "name": "amount",
          "type": "uint256"
        }
      ],
      "name": "PrizeDistributed",
      "type": "event"
    },
    {
      "anonymous": false,
      "inputs": [
        {
          "indexed": true,
          "internalType": "uint256",
          "name": "tournamentId",
          "type": "uint256"
        },
        {
          "indexed": false,
          "internalType": "string",
          "name": "name",
          "type": "string"
        },
        {
          "indexed": false,
          "internalType": "uint256",
          "name": "entryFee",
          "type": "uint256"
        },
        {
          "indexed": false,
          "internalType": "uint256",
          "name": "maxPlayers",
          "type": "uint256"
        }
      ],
      "name": "TournamentCreated",
      "type": "event"
    },
    {
      "anonymous": false,
      "inputs": [
        {
          "indexed": true,
          "internalType": "uint256",
          "name": "tournamentId",
          "type": "uint256"
        },
        {
          "indexed": false,
          "internalType": "address",
          "name": "winner",
          "type": "address"
        },
        {
          "indexed": false,
          "internalType": "uint256",
          "name": "prize",
          "type": "uint256"
        }
      ],
      "name": "TournamentFinished",
      "type": "event"
    },
    {
      "anonymous": false,
      "inputs": [
        {
          "indexed": true,
          "internalType": "uint256",
          "name": "tournamentId",
          "type": "uint256"
        }
      ],
      "name": "TournamentStarted",
      "type": "event"
    },
    {
      "inputs": [],
      "name": "chessGameContract",
      "outputs": [
        {
          "internalType": "contract ChessGame",
          "name": "",
          "type": "address"
        }
      ],
      "stateMutability": "view",
      "type": "function"
    },
    {
      "inputs": [
        {
          "internalType": "uint256",
          "name": "tournamentId",
          "type": "uint256"
        },
        {
          "internalType": "uint256",
          "name": "matchId",
          "type": "uint256"
        },
        {
          "internalType": "address",
          "name": "winner",
          "type": "address"
        }
      ],
      "name": "completeMatch",
      "outputs": [],
      "stateMutability": "nonpayable",
      "type": "function"
    },
    {
      "inputs": [
        {
          "internalType": "string",
          "name": "name",
          "type": "string"
        },
        {
          "internalType": "string",
          "name": "description",
          "type": "string"
        },
        {
          "internalType": "enum ChessTournament.TournamentType",
          "name": "tournamentType",
          "type": "uint8"
        },
        {
          "internalType": "uint256",
          "name": "entryFee",
          "type": "uint256"
        },
        {
          "internalType": "uint256",
          "name": "maxPlayers",
          "type": "uint256"
        },
        {
          "internalType": "uint256",
          "name": "startTime",
          "type": "uint256"
        }
      ],
      "name": "createTournament",
      "outputs": [],
      "stateMutability": "nonpayable",
      "type": "function"
    },
    {
      "inputs": [],
      "name": "emergencyWithdraw",
      "outputs": [],
      "stateMutability": "nonpayable",
      "type": "function"
    },
    {
      "inputs": [
        {
          "internalType": "address",
          "name": "player",
          "type": "address"
        }
      ],
      "name": "getPlayerTournaments",
      "outputs": [
        {
          "internalType": "uint256[]",
          "name": "",
          "type": "uint256[]"
        }
      ],
      "stateMutability": "view",
      "type": "function"
    },
    {
      "inputs": [
        {
          "internalType": "uint256",
          "name": "tournamentId",
          "type": "uint256"
        }
      ],
      "name": "getTournament",
      "outputs": [
        {
          "internalType": "uint256",
          "name": "id",
          "type": "uint256"
        },
        {
          "internalType": "string",
          "name": "name",
          "type": "string"
        },
        {
          "internalType": "string",
          "name": "description",
          "type": "string"
        },
        {
          "internalType": "enum ChessTournament.TournamentType",
          "name": "tournamentType",
          "type": "uint8"
        },
        {
          "internalType": "enum ChessTournament.TournamentState",
          "name": "state",
          "type": "uint8"
        },
        {
          "internalType": "uint256",
          "name": "entryFee",
          "type": "uint256"
        },
        {
          "internalType": "uint256",
          "name": "prizePool",
          "type": "uint256"
        },
        {
          "internalType": "uint256",
          "name": "maxPlayers",
          "type": "uint256"
        },
        {
          "internalType": "uint256",
          "name": "currentPlayers",
          "type": "uint256"
        },
        {
          "internalType": "uint256",
          "name": "startTime",
          "type": "uint256"
        },
        {
          "internalType": "uint256",
          "name": "endTime",
          "type": "uint256"
        },
        {
          "internalType": "uint256",
          "name": "totalRounds",
          "type": "uint256"
        },
        {
          "internalType": "uint256",
          "name": "currentRound",
          "type": "uint256"
        }
      ],
      "stateMutability": "view",
      "type": "function"
    },
    {
      "inputs": [
        {
          "internalType": "uint256",
          "name": "tournamentId",
          "type": "uint256"
        }
      ],
      "name": "getTournamentMatches",
      "outputs": [
        {
          "components": [
            {
              "internalType": "uint256",
              "name": "matchId",
              "type": "uint256"
            },
            {
              "internalType": "address",
              "name": "player1",
              "type": "address"
            },
            {
              "internalType": "address",
              "name": "player2",
              "type": "address"
            },
            {
              "internalType": "uint256",
              "name": "gameId",
              "type": "uint256"
            },
            {
              "internalType": "address",
              "name": "winner",
              "type": "address"
            },
            {
              "internalType": "bool",
              "name": "isComplete",
              "type": "bool"
            },
            {
              "internalType": "uint256",
              "name": "round",
              "type": "uint256"
            },
            {
              "internalType": "uint256",
              "name": "matchNumber",
              "type": "uint256"
            }
          ],
          "internalType": "struct ChessTournament.Match[]",
          "name": "",
          "type": "tuple[]"
        }
      ],
      "stateMutability": "view",
      "type": "function"
    },
    {
      "inputs": [
        {
          "internalType": "uint256",
          "name": "tournamentId",
          "type": "uint256"
        }
      ],
      "name": "getTournamentPlayers",
      "outputs": [
        {
          "internalType": "address[]",
          "name": "",
          "type": "address[]"
        }
      ],
      "stateMutability": "view",
      "type": "function"
    },
    {
      "inputs": [
        {
          "internalType": "uint256",
          "name": "tournamentId",
          "type": "uint256"
        },
        {
          "internalType": "address",
          "name": "player",
          "type": "address"
        }
      ],
      "name": "isPlayerRegistered",
      "outputs": [
        {
          "internalType": "bool",
          "name": "",
          "type": "bool"
        }
      ],
      "stateMutability": "view",
      "type": "function"
    },
    {
      "inputs": [],
      "name": "maxEntryFee",
      "outputs": [
        {
          "internalType": "uint256",
          "name": "",
          "type": "uint256"
        }
      ],
      "stateMutability": "view",
      "type": "function"
    },
    {
      "inputs": [],
      "name": "minEntryFee",
      "outputs": [
        {
          "internalType": "uint256",
          "name": "",
          "type": "uint256"
        }
      ],
      "stateMutability": "view",
      "type": "function"
    },
    {
      "inputs": [],
      "name": "owner",
      "outputs": [
        {
          "internalType": "address",
          "name": "",
          "type": "address"
        }
      ],
      "stateMutability": "view",
      "type": "function"
    },
    {
      "inputs": [],
      "name": "platformFee",
      "outputs": [
        {
          "internalType": "uint256",
          "name": "",
          "type": "uint256"
        }
      ],
      "stateMutability": "view",
      "type": "function"
    },
    {
      "inputs": [
        {
          "internalType": "address",
          "name": "",
          "type": "address"
        },
        {
          "internalType": "uint256",
          "name": "",
          "type": "uint256"
        }
      ],
      "name": "playerTournaments",
      "outputs": [
        {
          "internalType": "uint256",
          "name": "",
          "type": "uint256"
        }
      ],
      "stateMutability": "view",
      "type": "function"
    },
    {
      "inputs": [
        {
          "internalType": "uint256",
          "name": "tournamentId",
          "type": "uint256"
        }
      ],
      "name": "registerForTournament",
      "outputs": [],
      "stateMutability": "payable",
      "type": "function"
    },
    {
      "inputs": [],
      "name": "renounceOwnership",
      "outputs": [],
      "stateMutability": "nonpayable",
      "type": "function"
    },
    {
      "inputs": [
        {
          "internalType": "uint256",
          "name": "newMinFee",
          "type": "uint256"
        },
        {
          "internalType": "uint256",
          "name": "newMaxFee",
          "type": "uint256"
        }
      ],
      "name": "setEntryFeeLimits",
      "outputs": [],
      "stateMutability": "nonpayable",
      "type": "function"
    },
    {
      "inputs": [
        {
          "internalType": "uint256",
          "name": "newFee",
          "type": "uint256"
        }
      ],
      "name": "setPlatformFee",
      "outputs": [],
      "stateMutability": "nonpayable",
      "type": "function"
    },
    {
      "inputs": [
        {
          "internalType": "uint256",
          "name": "tournamentId",
          "type": "uint256"
        }
      ],
      "name": "startTournament",
      "outputs": [],
      "stateMutability": "nonpayable",
      "type": "function"
    },
    {
      "inputs": [
        {
          "internalType": "uint256",
          "name": "",
          "type": "uint256"
        }
      ],
      "name": "tournaments",
      "outputs": [
        {
          "internalType": "uint256",
          "name": "tournamentId",
          "type": "uint256"
        },
        {
          "internalType": "string",
          "name": "name",
          "type": "string"
        },
        {
          "internalType": "string",
          "name": "description",
          "type": "string"
        },
        {
          "internalType": "enum ChessTournament.TournamentType",
          "name": "tournamentType",
          "type": "uint8"
        },
        {
          "internalType": "enum ChessTournament.TournamentState",
          "name": "state",
          "type": "uint8"
        },
        {
          "internalType": "uint256",
          "name": "entryFee",
          "type": "uint256"
        },
        {
          "internalType": "uint256",
          "name": "prizePool",
          "type": "uint256"
        },
        {
          "internalType": "uint256",
          "name": "maxPlayers",
          "type": "uint256"
        },
        {
          "internalType": "uint256",
          "name": "currentPlayers",
          "type": "uint256"
        },
        {
          "internalType": "uint256",
          "name": "startTime",
          "type": "uint256"
        },
        {
          "internalType": "uint256",
          "name": "endTime",
          "type": "uint256"
        },
        {
          "internalType": "uint256",
          "name": "totalRounds",
          "type": "uint256"
        },
        {
          "internalType": "uint256",
          "name": "currentRound",
          "type": "uint256"
        }
      ],
      "stateMutability": "view",
      "type": "function"
    },
    {
      "inputs": [
        {
          "internalType": "address",
          "name": "newOwner",
          "type": "address"
        }
      ],
      "name": "transferOwnership",
      "outputs": [],
      "stateMutability": "nonpayable",
      "type": "function"
    }
  ],
  "bytecode": "0x6080346100e957601f611fe938819003918201601f19168301916001600160401b038311848410176100ee578084926020946040528339810103126100e957516001600160a01b0390818116908190036100e957600160005533156100d05760018054336001600160a01b03198083168217909355604051949091167f8be0079c531659141344cd1fd0a4f28419497f9722a3daafe3b4186f6b6457e0600080a3603260065566038d7ea4c68000600755674563918244f400006008556005541617600555611ee490816101058239f35b604051631e4fbdf760e01b815260006004820152602490fd5b600080fd5b634e487b7160e01b600052604160045260246000fdfe6080604052600436101561001257600080fd5b60e0600035811c90816312e8e2c31461164b57816317b747d6146115975781631a5bd7fc1461150d57816325fdd55c146114e457816326232a2e146114c657816326f7519a1461140b578163334f7deb146112495781635d316c49146111f4578163651ea943146110c45781636f4cf97214610a2e578163715018a6146109d15781637503e1b71461094457816376e5b8621461092657816386b2f739146109085781638da5cb5b146108df5781639b19271f1461086c578163d7ddbbff146103ad578163d8c57e851461024157508063db2e21bc146101f1578063e0661275146101995763f2fde38b1461010657600080fd5b346101945760203660031901126101945761011f6116b2565b61012761194e565b6001600160a01b0390811690811561017b57600154826bffffffffffffffffffffffff60a01b821617600155167f8be0079c531659141344cd1fd0a4f28419497f9722a3daafe3b4186f6b6457e0600080a3005b604051631e4fbdf760e01b815260006004820152602490fd5b600080fd5b34610194576040366003190112610194576101b26116b2565b6001600160a01b0316600090815260046020526040902080546024359190821015610194576020916101e391611920565b90546040519160031b1c8152f35b346101945760003660031901126101945761020a61194e565b600080808060018060a01b03600154164790828215610238575bf11561022c57005b6040513d6000823e3d90fd5b506108fc610224565b346101945760208060031936011261019457600435600052600390818152600b60406000200190815461027381611e71565b936102816040519586611801565b81855260009384528284208386019491855b84841061033057505050505060405192818401908285525180915260408401929160005b8281106102c45785850386f35b835180518652808301516001600160a01b0390811687850152604080830151821690880152606080830151908801526080808301519091169087015260a08082015115159087015260c080820151908701528701518786015261010090940193928101926001016102b7565b60078660019260409a989a51610345816117e4565b86548152848060a01b03808689015416848301528060028901541660408301528688015460608301526004880154908116608083015260ff60a091821c16151590820152600587015460c082015260068701548d820152815201930193019291969496610293565b346101945760c03660031901126101945760043567ffffffffffffffff8111610194576103de9036906004016118c9565b60243567ffffffffffffffff8111610194576103fe9036906004016118c9565b90600460443510156101945761041261194e565b80511561085a5760075460643510610848576008546064351161083657600260843510610824574260a43511156108125761044e60025461197a565b90816002558160005260036020526040600020828155815167ffffffffffffffff811161073d5761048260018301546117aa565b601f81116107cb575b50806020601f821160011461075e57600091610753575b508160011b916000199060031b1c19161760018201555b835167ffffffffffffffff811161073d576104d760028301546117aa565b601f81116106f6575b506020601f821160011461068757819293949560009261067c575b50508160011b916000199060031b1c19161760028201555b60038101610522604435611708565b805460ff604435169061ffff19161790556064356004820155608435600682015560a43560088201556000600f82015561055d604435611708565b6044356105c4577ff921e1476612bff3a21b96b63ae8a3ac03579129aad3ed13624285327365837c916105af91600e610597608435611e89565b9101555b6040519182916060835260608301906116c8565b606435602083015260843560408301520390a2005b6105cf604435611708565b60443560010361063d576105e4608435611e89565b918260011b9280840460021490151715610627577ff921e1476612bff3a21b96b63ae8a3ac03579129aad3ed13624285327365837c92600e6105af93015561059b565b634e487b7160e01b600052601160045260246000fd5b608435600019810192908311610627577ff921e1476612bff3a21b96b63ae8a3ac03579129aad3ed13624285327365837c92600e6105af93015561059b565b0151905085806104fb565b6002830160005260206000209060005b601f19841681106106de575060019394959683601f198116106106c5575b505050811b016002820155610513565b015160001960f88460031b161c191690558580806106b5565b9091602060018192858b015181550193019101610697565b600283016000526020600020601f830160051c810160208410610736575b601f830160051c8201811061072a5750506104e0565b60008155600101610714565b5080610714565b634e487b7160e01b600052604160045260246000fd5b9050830151866104a2565b91506001830160005260206000206000925b601f19831684106107b3576001935082601f1981161061079a575b5050811b0160018201556104b9565b85015160001960f88460031b161c19169055868061078b565b85810151825560209384019360019092019101610770565b600183016000526020600020601f830160051c81016020841061080b575b601f830160051c820181106107ff57505061048b565b600081556001016107e9565b50806107e9565b6040516326e687eb60e01b8152600490fd5b6040516365d4be2960e01b8152600490fd5b604051631a3dc29960e21b8152600490fd5b604051630ec537a760e11b8152600490fd5b60405163430f13b360e01b8152600490fd5b346101945760403660031901126101945760043560243561088b61194e565b808210156108cd57816040917fc1fd4095ab0cb5ca7e1d60f55fe88193f52a0b0956365a8875e74b7d398ad905936007558060085582519182526020820152a1005b604051630532729960e41b8152600490fd5b34610194576000366003190112610194576001546040516001600160a01b039091168152602090f35b34610194576000366003190112610194576020600854604051908152f35b34610194576000366003190112610194576020600754604051908152f35b34610194576020366003190112610194576004356000526003602052604060002080546109cd61097660018401611823565b9161098360028501611823565b936003810154600482015460058301546006840154600785015491600886015493600987015495600f600e890154980154986040519c8d9c8d9260ff808660081c16951693611728565b0390f35b34610194576000366003190112610194576109ea61194e565b600180546001600160a01b031981169091556000906001600160a01b03167f8be0079c531659141344cd1fd0a4f28419497f9722a3daafe3b4186f6b6457e08280a3005b34610194576060366003190112610194576044356001600160a01b038116900361019457610a5a61194e565b60043560005260036020526040600020600160ff600383015460081c16610a8081611708565b0361108757602435600052600d8101602052604060002060048101549060ff8260a01c166110495760018101546044356001600160a01b03908116911614801561102d575b15610ff757600160a01b6001600160a01b03604435166001600160a81b0319939093168317176004808301919091556040519283526005926024359135907f8d60b015965672d4594cbe60ae278e009bdef53b71cccf704014a4860ccf8a5790602090a3015490610b3882600435611dfd565b610b3e57005b600e015403610c84576004356000526003602052600560406000206003810161020061ff00198254161790554260098201550154600654808202908282041482151715610627576103e8610b9491048092611989565b908160008115610c7b575b6000918291829182916044356001600160a01b031690f11561022c5780158015610c4b575b5050604080516044356001600160a01b0316815260208101839052600435917f259b1e4420f2622d68cf5d6523cc77e0631eb9f18293e1237dcd4c9be7720d8991a2604080516044356001600160a01b031681526020810192909252600435917fdc1d0b6a7cbfa6f3b2d4325bab5a169b265ad0b2b4022fb550364f0dfeeb6a749190a25b005b6000808093819360018060a01b0360015416908390610c72575bf11561022c578180610bc4565b506108fc610c65565b506108fc610b9f565b6004356000526003602052600f604060002001610ca1815461197a565b809155600435600052600360205260ff60036040600020015416610cc481611708565b80610f4b57506004356000526003602052604060002060018214600014610d7757600a01805460011c9060005b828110610cfa57005b8060011b908082046002148115171561062757610d178284611920565b905460039190911b1c6001600160a01b0316916001810190811061062757610d3f9084611920565b905460039190911b1c6001600160a01b0316600182018083116106275786610d6d92610d7295600435611d64565b61197a565b610cf1565b5080600019810111610627576004356000908152600360205260408120600b81015490825b828110610ee75750610dad83611e71565b92610dbb6040519485611801565b808452610dca601f1991611e71565b0136602085013760009060005b838110610e5d5750505050805160011c9060005b828110610df457005b8060011b9080820460021481151715610627576001600160a01b03610e198385611b98565b51169160018101809111610627576001600160a01b0390610e3a9085611b98565b5116600182018083116106275786610d6d92610e5895600435611d64565b610deb565b610e6a81600b8401611bac565b506005015460001987011480610ec9575b610e8e575b610e899061197a565b610dd7565b91610ec1610e8991610ea385600b8601611bac565b50600401546001600160a01b0316610ebb8289611b98565b5261197a565b929050610e80565b5060ff6004610edb83600b8601611bac565b50015460a01c16610e7b565b610ef481600b8401611bac565b506005015460001986011480610f2d575b610f18575b610f139061197a565b610d9c565b92610f25610f139161197a565b939050610f0a565b5060ff6004610f3f83600b8601611bac565b50015460a01c16610f05565b80610f57600292611708565b14610f5e57005b6004356000526003602052600a60406000200180546000908060011c926000198201918211925b848110610f8e57005b80610f9a859284611920565b905460039190911b1c6001600160a01b03169161062757610fc4610fbe8286611989565b84611920565b905460039190911b1c6001600160a01b0316600182018083116106275788610d6d92610ff295600435611d64565b610f85565b60405162461bcd60e51b815260206004820152600e60248201526d24b73b30b634b2103bb4b73732b960911b6044820152606490fd5b5060028101546044356001600160a01b03908116911614610ac5565b60405162461bcd60e51b81526020600482015260166024820152754d6174636820616c726561647920636f6d706c65746560501b6044820152606490fd5b60405162461bcd60e51b8152602060048201526015602482015274546f75726e616d656e74206e6f742061637469766560581b6044820152606490fd5b34610194576020366003190112610194576004356110e061194e565b806000526003602052604060002060ff600382015460081c1661110281611708565b6111af57600260078201541061116a5760080154421061112557610c4990611996565b60405162461bcd60e51b815260206004820152601d60248201527f546f75726e616d656e74206e6f7420726561647920746f2073746172740000006044820152606490fd5b60405162461bcd60e51b815260206004820152601760248201527f4e656564206174206c65617374203220706c61796572730000000000000000006044820152606490fd5b60405162461bcd60e51b815260206004820152601e60248201527f546f75726e616d656e74206e6f7420696e20726567697374726174696f6e00006044820152606490fd5b34610194576040366003190112610194576024356001600160a01b03811690819003610194576004356000526003602052600c60406000200190600052602052602060ff604060002054166040519015158152f35b6020366003190112610194576004356002600054146113f9576002600055806000526003602052604060002060ff600382015460081c1661128981611708565b6113d557600c8101336000528060205260ff604060002054166113e75760078201908154926006810193845411156113d5576004810191825434036113c357336000526020526040600020600160ff19825416179055600a810191825490600160401b938483101561073d5782611307916001600595018155611920565b81546001600160a01b0360039290921b91821b19163390911b179055845461132e9061197a565b85555491018054918201809211610627575533600052600460205260406000209081549081101561073d5761136891600182018155611920565b81549060031b9085821b91600019901b191617905533837fc18c35a89038d83bd7af8c744ff689d68f772adf84d7774f8e415f151246694e600080a3549054146113b4575b6001600055005b6113bd90611996565b806113ad565b604051630440523d60e41b8152600490fd5b604051636a25993760e01b8152600490fd5b604051630ea075bf60e21b8152600490fd5b604051633ee5aeb560e01b8152600490fd5b34610194576020806003193601126101945760043560005260038152600a60406000200160405190818382549182815201908192600052846000209060005b868282106114a957868661146082880383611801565b604051928392818401908285525180915260408401929160005b82811061148957505050500390f35b83516001600160a01b03168552869550938101939281019260010161147a565b83546001600160a01b03168552909301926001928301920161144a565b34610194576000366003190112610194576020600654604051908152f35b34610194576000366003190112610194576005546040516001600160a01b039091168152602090f35b3461019457602036600319011261019457600435600052600360205260406000208054906109cd816003810154600482015460058301546006840154600785015490600886015492600987015494600e8801549661157e60026115776001600f8d01549c01611823565b9c01611823565b9b6040519c8d9c8d9260ff808660081c16951693611728565b3461019457602080600319360112610194576001600160a01b036115b96116b2565b1660005260048152604060002060405190818382549182815201908192600052846000209060005b868282106116375786866115f782880383611801565b604051928392818401908285525180915260408401929160005b82811061162057505050500390f35b835185528695509381019392810192600101611611565b8354855290930192600192830192016115e1565b346101945760203660031901126101945760043561166761194e565b606481116116a0576020817f45610d581145924dd7090a5017e5f2b1d6f42213bb2e95707ff86846bbfcb1ca92600655604051908152a1005b60405163183440b760e31b8152600490fd5b600435906001600160a01b038216820361019457565b919082519283825260005b8481106116f4575050826000602080949584010152601f8019910116010190565b6020818301810151848301820152016116d3565b6004111561171257565b634e487b7160e01b600052602160045260246000fd5b9996939d9c9b9895926117546101809c999693611762938d5260208d6101a091829101528d01906116c8565b908b820360408d01526116c8565b9c61176c81611708565b60608a015261177a81611708565b608089015260a088015260c087015260e08601526101008501526101208401526101408301526101608201520152565b90600182811c921680156117da575b60208310146117c457565b634e487b7160e01b600052602260045260246000fd5b91607f16916117b9565b610100810190811067ffffffffffffffff82111761073d57604052565b90601f8019910116810190811067ffffffffffffffff82111761073d57604052565b9060405191826000825492611837846117aa565b9081845260019485811690816000146118a65750600114611863575b505061186192500383611801565b565b9093915060005260209081600020936000915b81831061188e57505061186193508201013880611853565b85548884018501529485019487945091830191611876565b91505061186194506020925060ff191682840152151560051b8201013880611853565b81601f820112156101945780359067ffffffffffffffff821161073d57604051926118fe601f8401601f191660200185611801565b8284526020838301011161019457816000926020809301838601378301015290565b80548210156119385760005260206000200190600090565b634e487b7160e01b600052603260045260246000fd5b6001546001600160a01b0316330361196257565b60405163118cdaa760e01b8152336004820152602490fd5b60001981146106275760010190565b9190820391821161062757565b6000818152600380602052600f60ff604084208381019081549161010061ff0019841617905560019384910155166119cd81611708565b80611aaa575083835281602052600a60408420018054821c92845b848110611a1b5750505050507f6092323421a4a860e7644d69619f90504d467bc4d0ef357c6c17e786217500c5905b80a2565b80841b81810460021482151715611a9657611a368185611920565b90546001600160a01b0391851b1c811691868101908110611a8257611a5b9086611920565b905490851b1c1685830191828411611a825791610d6d91611a7d94938b611c5f565b6119e8565b634e487b7160e01b89526011600452602489fd5b634e487b7160e01b87526011600452602487fd5b80611ab6600292611708565b14611ae5575b50507f6092323421a4a860e7644d69619f90504d467bc4d0ef357c6c17e786217500c590611a17565b838352602082905260408320600a01805480831c93600019820191821192865b868110611b16575050505050611abc565b84611b218284611920565b90546001600160a01b0391861b1c811691611b8457611b49611b438488611989565b85611920565b905490861b1c1687830191828411611b705791610d6d91611b6b94938d611c5f565b611b05565b634e487b7160e01b8b52601160045260248bfd5b634e487b7160e01b8a52601160045260248afd5b80518210156119385760209160051b010190565b8054821015611938576000526007602060002091020190600090565b9060e0600691805184556001840160018060a01b039081602084015116906bffffffffffffffffffffffff60a01b91828254161790556002860190826040850151169082541617905560608201516003860155600485019060808301511681549060ff60a01b60a0850151151560a01b16916affffffffffffffffffffff60a81b161717905560c081015160058501550151910155565b90939291936000948286526003602052604091828720600b810180549060018201808311611b7057865194611c93866117e4565b81865260018060a01b0380911696876020880152169889888701528b60608701528b60808701528b60a0870152600160c087015260e0860152600160401b831015611d50578155611ce49190611bac565b611d3c57847fd73cda5f55d122ca12248e09cee04ef70f241759348f56a4788f02475ef0a90d96979899600d611d2d94611d1f878096611bc8565b845183520160205220611bc8565b519482519182526020820152a3565b634e487b7160e01b89526004899052602489fd5b634e487b7160e01b8b52604160045260248bfd5b9194939094600095838752600360205260409283882090600b82018054916001830190818411611de957875195611d9a876117e4565b82875260018060a01b038091169788602089015216998a898801528c60608801528c60808801528c60a088015260c087015260e0860152600160401b831015611d50578155611ce49190611bac565b634e487b7160e01b8c52601160045260248cfd5b6000908152600360205260408120600b01805492825b848110611e24575050505050600190565b816005611e318386611bac565b5001541480611e55575b611e4d57611e489061197a565b611e13565b505050905090565b5060ff6004611e648386611bac565b50015460a01c1615611e3b565b67ffffffffffffffff811161073d5760051b60200190565b6000905b60019081811115611ea957611ea3911c9161197a565b90611e8d565b50509056fea2646970667358221220047e0e4c8a0aeb5ea5098724911b40730ce97c5cd725ea28cf5de20bec7602cf64736f6c63430008140033",
  "linkReferences": {},
  "deployedLinkReferences": {}
}