{
  "_format": "hh-sol-artifact-1",
  "contractName": "ChessGame",
  "sourceName": "contracts/ChessGame.sol",
  "abi": [
    {
      "inputs": [],
      "stateMutability": "nonpayable",
      "type": "constructor"
    },
    {
      "inputs": [],
      "name": "GameFull",
      "type": "error"
    },
    {
      "inputs": [],
      "name": "GameNotActive",
      "type": "error"
    },
    {
      "inputs": [],
      "name": "GameNotActiveForEnding",
      "type": "error"
    },
    {
      "inputs": [],
      "name": "GameNotInWaitingState",
      "type": "error"
    },
    {
      "inputs": [],
      "name": "InvalidMove",
      "type": "error"
    },
    {
      "inputs": [],
      "name": "InvalidPlatformFee",
      "type": "error"
    },
    {
      "inputs": [],
      "name": "NotYourTurn",
      "type": "error"
    },
    {
      "inputs": [
        {
          "internalType": "address",
          "name": "owner",
          "type": "address"
        }
      ],
      "name": "OwnableInvalidOwner",
      "type": "error"
    },
    {
      "inputs": [
        {
          "internalType": "address",
          "name": "account",
          "type": "address"
        }
      ],
      "name": "OwnableUnauthorizedAccount",
      "type": "error"
    },
    {
      "inputs": [],
      "name": "PlayerAlreadyInGame",
      "type": "error"
    },
    {
      "inputs": [],
      "name": "ReentrancyGuardReentrantCall",
      "type": "error"
    },
    {
      "inputs": [],
      "name": "StakeAmountMismatch",
      "type": "error"
    },
    {
      "inputs": [],
      "name": "StakeTooHigh",
      "type": "error"
    },
    {
      "inputs": [],
      "name": "StakeTooLow",
      "type": "error"
    },
    {
      "anonymous": false,
      "inputs": [
        {
          "indexed": true,
          "internalType": "uint256",
          "name": "gameId",
          "type": "uint256"
        },
        {
          "indexed": true,
          "internalType": "address",
          "name": "creator",
          "type": "address"
        },
        {
          "indexed": false,
          "internalType": "uint256",
          "name": "stake",
          "type": "uint256"
        }
      ],
      "name": "GameCreated",
      "type": "event"
    },
    {
      "anonymous": false,
      "inputs": [
        {
          "indexed": true,
          "internalType": "uint256",
          "name": "gameId",
          "type": "uint256"
        },
        {
          "indexed": false,
          "internalType": "enum ChessGame.GameState",
          "name": "state",
          "type": "uint8"
        },
        {
          "indexed": false,
          "internalType": "address",
          "name": "winner",
          "type": "address"
        }
      ],
      "name": "GameEnded",
      "type": "event"
    },
    {
      "anonymous": false,
      "inputs": [
        {
          "indexed": true,
          "internalType": "uint256",
          "name": "gameId",
          "type": "uint256"
        },
        {
          "indexed": true,
          "internalType": "address",
          "name": "player",
          "type": "address"
        }
      ],
      "name": "GameJoined",
      "type": "event"
    },
    {
      "anonymous": false,
      "inputs": [
        {
          "indexed": true,
          "internalType": "uint256",
          "name": "gameId",
          "type": "uint256"
        },
        {
          "indexed": true,
          "internalType": "address",
          "name": "player",
          "type": "address"
        },
        {
          "indexed": false,
          "internalType": "uint8",
          "name": "fromRow",
          "type": "uint8"
        },
        {
          "indexed": false,
          "internalType": "uint8",
          "name": "fromCol",
          "type": "uint8"
        },
        {
          "indexed": false,
          "internalType": "uint8",
          "name": "toRow",
          "type": "uint8"
        },
        {
          "indexed": false,
          "internalType": "uint8",
          "name": "toCol",
          "type": "uint8"
        }
      ],
      "name": "MoveMade",
      "type": "event"
    },
    {
      "anonymous": false,
      "inputs": [
        {
          "indexed": true,
          "internalType": "address",
          "name": "previousOwner",
          "type": "address"
        },
        {
          "indexed": true,
          "internalType": "address",
          "name": "newOwner",
          "type": "address"
        }
      ],
      "name": "OwnershipTransferred",
      "type": "event"
    },
    {
      "anonymous": false,
      "inputs": [
        {
          "indexed": true,
          "internalType": "uint256",
          "name": "gameId",
          "type": "uint256"
        },
        {
          "indexed": true,
          "internalType": "address",
          "name": "player",
          "type": "address"
        },
        {
          "indexed": false,
          "internalType": "uint256",
          "name": "amount",
          "type": "uint256"
        }
      ],
      "name": "StakeClaimed",
      "type": "event"
    },
    {
      "inputs": [
        {
          "internalType": "uint256",
          "name": "stake",
          "type": "uint256"
        }
      ],
      "name": "createGame",
      "outputs": [],
      "stateMutability": "payable",
      "type": "function"
    },
    {
      "inputs": [],
      "name": "emergencyWithdraw",
      "outputs": [],
      "stateMutability": "nonpayable",
      "type": "function"
    },
    {
      "inputs": [
        {
          "internalType": "uint256",
          "name": "gameId",
          "type": "uint256"
        },
        {
          "internalType": "enum ChessGame.GameState",
          "name": "state",
          "type": "uint8"
        }
      ],
      "name": "endGame",
      "outputs": [],
      "stateMutability": "nonpayable",
      "type": "function"
    },
    {
      "inputs": [],
      "name": "gameTimeout",
      "outputs": [
        {
          "internalType": "uint256",
          "name": "",
          "type": "uint256"
        }
      ],
      "stateMutability": "view",
      "type": "function"
    },
    {
      "inputs": [
        {
          "internalType": "uint256",
          "name": "",
          "type": "uint256"
        }
      ],
      "name": "games",
      "outputs": [
        {
          "internalType": "address",
          "name": "whitePlayer",
          "type": "address"
        },
        {
          "internalType": "address",
          "name": "blackPlayer",
          "type": "address"
        },
        {
          "internalType": "enum ChessGame.GameState",
          "name": "state",
          "type": "uint8"
        },
        {
          "internalType": "uint256",
          "name": "stake",
          "type": "uint256"
        },
        {
          "internalType": "uint256",
          "name": "gameId",
          "type": "uint256"
        },
        {
          "internalType": "uint256",
          "name": "createdAt",
          "type": "uint256"
        },
        {
          "internalType": "uint256",
          "name": "lastMoveAt",
          "type": "uint256"
        },
        {
          "internalType": "address",
          "name": "currentTurn",
          "type": "address"
        },
        {
          "internalType": "bool",
          "name": "whiteAccepted",
          "type": "bool"
        },
        {
          "internalType": "bool",
          "name": "blackAccepted",
          "type": "bool"
        }
      ],
      "stateMutability": "view",
      "type": "function"
    },
    {
      "inputs": [
        {
          "internalType": "uint256",
          "name": "gameId",
          "type": "uint256"
        }
      ],
      "name": "getGame",
      "outputs": [
        {
          "components": [
            {
              "internalType": "address",
              "name": "whitePlayer",
              "type": "address"
            },
            {
              "internalType": "address",
              "name": "blackPlayer",
              "type": "address"
            },
            {
              "internalType": "enum ChessGame.GameState",
              "name": "state",
              "type": "uint8"
            },
            {
              "internalType": "uint256",
              "name": "stake",
              "type": "uint256"
            },
            {
              "internalType": "uint256",
              "name": "gameId",
              "type": "uint256"
            },
            {
              "internalType": "uint256",
              "name": "createdAt",
              "type": "uint256"
            },
            {
              "internalType": "uint256",
              "name": "lastMoveAt",
              "type": "uint256"
            },
            {
              "internalType": "address",
              "name": "currentTurn",
              "type": "address"
            },
            {
              "components": [
                {
                  "internalType": "uint8",
                  "name": "fromRow",
                  "type": "uint8"
                },
                {
                  "internalType": "uint8",
                  "name": "fromCol",
                  "type": "uint8"
                },
                {
                  "internalType": "uint8",
                  "name": "toRow",
                  "type": "uint8"
                },
                {
                  "internalType": "uint8",
                  "name": "toCol",
                  "type": "uint8"
                },
                {
                  "internalType": "enum ChessGame.PieceType",
                  "name": "pieceType",
                  "type": "uint8"
                },
                {
                  "internalType": "bool",
                  "name": "isCapture",
                  "type": "bool"
                },
                {
                  "internalType": "bool",
                  "name": "isCheck",
                  "type": "bool"
                },
                {
                  "internalType": "bool",
                  "name": "isCheckmate",
                  "type": "bool"
                },
                {
                  "internalType": "bool",
                  "name": "isDraw",
                  "type": "bool"
                },
                {
                  "internalType": "uint256",
                  "name": "timestamp",
                  "type": "uint256"
                }
              ],
              "internalType": "struct ChessGame.Move[]",
              "name": "moves",
              "type": "tuple[]"
            },
            {
              "internalType": "bool",
              "name": "whiteAccepted",
              "type": "bool"
            },
            {
              "internalType": "bool",
              "name": "blackAccepted",
              "type": "bool"
            }
          ],
          "internalType": "struct ChessGame.Game",
          "name": "",
          "type": "tuple"
        }
      ],
      "stateMutability": "view",
      "type": "function"
    },
    {
      "inputs": [
        {
          "internalType": "address",
          "name": "player",
          "type": "address"
        }
      ],
      "name": "getPlayerGames",
      "outputs": [
        {
          "internalType": "uint256[]",
          "name": "",
          "type": "uint256[]"
        }
      ],
      "stateMutability": "view",
      "type": "function"
    },
    {
      "inputs": [
        {
          "internalType": "address",
          "name": "player",
          "type": "address"
        }
      ],
      "name": "getPlayerStats",
      "outputs": [
        {
          "internalType": "uint256",
          "name": "wins",
          "type": "uint256"
        },
        {
          "internalType": "uint256",
          "name": "rating",
          "type": "uint256"
        }
      ],
      "stateMutability": "view",
      "type": "function"
    },
    {
      "inputs": [
        {
          "internalType": "uint256",
          "name": "gameId",
          "type": "uint256"
        }
      ],
      "name": "joinGame",
      "outputs": [],
      "stateMutability": "payable",
      "type": "function"
    },
    {
      "inputs": [
        {
          "internalType": "uint256",
          "name": "gameId",
          "type": "uint256"
        },
        {
          "internalType": "uint8",
          "name": "fromRow",
          "type": "uint8"
        },
        {
          "internalType": "uint8",
          "name": "fromCol",
          "type": "uint8"
        },
        {
          "internalType": "uint8",
          "name": "toRow",
          "type": "uint8"
        },
        {
          "internalType": "uint8",
          "name": "toCol",
          "type": "uint8"
        },
        {
          "internalType": "enum ChessGame.PieceType",
          "name": "pieceType",
          "type": "uint8"
        }
      ],
      "name": "makeMove",
      "outputs": [],
      "stateMutability": "nonpayable",
      "type": "function"
    },
    {
      "inputs": [],
      "name": "maxStake",
      "outputs": [
        {
          "internalType": "uint256",
          "name": "",
          "type": "uint256"
        }
      ],
      "stateMutability": "view",
      "type": "function"
    },
    {
      "inputs": [],
      "name": "minStake",
      "outputs": [
        {
          "internalType": "uint256",
          "name": "",
          "type": "uint256"
        }
      ],
      "stateMutability": "view",
      "type": "function"
    },
    {
      "inputs": [],
      "name": "owner",
      "outputs": [
        {
          "internalType": "address",
          "name": "",
          "type": "address"
        }
      ],
      "stateMutability": "view",
      "type": "function"
    },
    {
      "inputs": [],
      "name": "platformFee",
      "outputs": [
        {
          "internalType": "uint256",
          "name": "",
          "type": "uint256"
        }
      ],
      "stateMutability": "view",
      "type": "function"
    },
    {
      "inputs": [
        {
          "internalType": "address",
          "name": "",
          "type": "address"
        },
        {
          "internalType": "uint256",
          "name": "",
          "type": "uint256"
        }
      ],
      "name": "playerGames",
      "outputs": [
        {
          "internalType": "uint256",
          "name": "",
          "type": "uint256"
        }
      ],
      "stateMutability": "view",
      "type": "function"
    },
    {
      "inputs": [
        {
          "internalType": "address",
          "name": "",
          "type": "address"
        }
      ],
      "name": "playerRating",
      "outputs": [
        {
          "internalType": "uint256",
          "name": "",
          "type": "uint256"
        }
      ],
      "stateMutability": "view",
      "type": "function"
    },
    {
      "inputs": [
        {
          "internalType": "address",
          "name": "",
          "type": "address"
        }
      ],
      "name": "playerStats",
      "outputs": [
        {
          "internalType": "uint256",
          "name": "",
          "type": "uint256"
        }
      ],
      "stateMutability": "view",
      "type": "function"
    },
    {
      "inputs": [],
      "name": "renounceOwnership",
      "outputs": [],
      "stateMutability": "nonpayable",
      "type": "function"
    },
    {
      "inputs": [
        {
          "internalType": "uint256",
          "name": "newTimeout",
          "type": "uint256"
        }
      ],
      "name": "setGameTimeout",
      "outputs": [],
      "stateMutability": "nonpayable",
      "type": "function"
    },
    {
      "inputs": [
        {
          "internalType": "uint256",
          "name": "newFee",
          "type": "uint256"
        }
      ],
      "name": "setPlatformFee",
      "outputs": [],
      "stateMutability": "nonpayable",
      "type": "function"
    },
    {
      "inputs": [
        {
          "internalType": "uint256",
          "name": "newMinStake",
          "type": "uint256"
        },
        {
          "internalType": "uint256",
          "name": "newMaxStake",
          "type": "uint256"
        }
      ],
      "name": "setStakeLimits",
      "outputs": [],
      "stateMutability": "nonpayable",
      "type": "function"
    },
    {
      "inputs": [
        {
          "internalType": "address",
          "name": "newOwner",
          "type": "address"
        }
      ],
      "name": "transferOwnership",
      "outputs": [],
      "stateMutability": "nonpayable",
      "type": "function"
    }
  ],
  "bytecode": "0x608080604052346100a1576001600055331561008b5760018054336001600160a01b03198216811790925560405191906001600160a01b03167f8be0079c531659141344cd1fd0a4f28419497f9722a3daafe3b4186f6b6457e0600080a3601960075566038d7ea4c68000600855678ac7230489e80000600955610e10600a5561163590816100a78239f35b631e4fbdf760e01b815260006004820152602490fd5b600080fdfe6080604052600436101561001257600080fd5b60003560e01c80630a5694c214611166578063117a5b90146110b8578063129daf841461100457806312e8e2c314610fa75780631e72553d14610f8957806326232a2e14610f6b578063375b3c0a14610f4d57806348e837b914610e3957806349137de414610dff5780634fd66eae14610db8578063715018a614610d5b5780638c9bd1b514610cf05780638da5cb5b14610cc7578063a2f77bcc14610981578063ab8b372114610960578063c544953114610898578063cdafbbb61461085e578063db2e21bc1461080e578063e4b6cd031461036d578063ea1b28e01461034f578063efaa55a01461019c5763f2fde38b1461010e57600080fd5b34610197576020366003190112610197576101276111be565b61012f61120c565b6001600160a01b0390811690811561017e57600154826001600160601b0360a01b821617600155167f8be0079c531659141344cd1fd0a4f28419497f9722a3daafe3b4186f6b6457e0600080a3005b604051631e4fbdf760e01b815260006004820152602490fd5b600080fd5b60208060031936011261019757600435906101b5611292565b81600052600381526040600020600181019081549160ff8360a01c166101da816111ec565b6103155781546001600160a01b0316923384146102d0576002830154340361028b5760088301805461ff0019166101001790556001600160a81b0319163360ff60a01b19811691909117600160a01b17909155600690910180546001600160a01b031916909217909155600090815260049091526040902061025d90829061125d565b33907f45c4f9cbafe186141862608c493f28b823fde4c2142bedc3f5169961a73fdd22600080a36001600055005b60405162461bcd60e51b815260048101869052601760248201527f5374616b6520616d6f756e74206d757374206d617463680000000000000000006044820152606490fd5b60405162461bcd60e51b815260048101869052601960248201527f43616e6e6f74206a6f696e20796f7572206f776e2067616d65000000000000006044820152606490fd5b60405162461bcd60e51b815260048101859052601260248201527147616d65206e6f7420617661696c61626c6560701b6044820152606490fd5b34610197576000366003190112610197576020600954604051908152f35b346101975760c03660031901126101975760243560ff811681036101975760443560ff81168103610197576064359160ff83168303610197576084359260ff8416840361019757600660a4351015610197576103c7611292565b600435600052600360205260406000209360018501546103f8600160ff8360a01c166103f2816111ec565b146112b5565b60068601546001600160a01b031633036107d95785546001600160a01b031633149081156107c6575b501561078157600860ff84161080610774575b80610767575b8061075a575b1561071f5760ff821660ff84161480159061070f575b156106ca576040519161046883611310565b60ff8416835260ff8516602084015260ff8116604084015260ff8216606084015261049460a4356111ec565b60a4356080840152600060a0840152600060c0840152600060e0840152600061010084015242610120840152600786015490600160401b8210156106b4576001820180600789015582101561069e5760ff936001610120869460078b01600052602060002090831b01928581511684549061ff00602084015160081b1662ff0000604085015160101b1663ff000000606086015160181b1664ff00000000608087015191610541836111ec565b61054a836111ec565b65ff000000000060a0890151151560281b169366ff00000000000060c08a0151151560301b169567ff0000000000000060e08b0151151560381b169768ff00000000000000006101008c0151151560401b169968ffffffffffffffffff1916171717179160201b161717171717845501519101554260058801558160068801549660018060a01b03895416988960018060a01b038a16146000146106965760018101546006906001600160a01b03165b60018060a01b0316809a6001600160601b0360a01b1617910155816040519716875216602086015216604084015216606082015233907f8a86246614292a26eb01c83c2b7790b40069d1804cb1f9d1ac78c9ff68e3a158608060043592a3610662424261134f565b600a5410610672575b6001600055005b0361068c5761068560035b60043561135c565b808061066b565b610685600261067d565b60068a6105fa565b634e487b7160e01b600052603260045260246000fd5b634e487b7160e01b600052604160045260246000fd5b60405162461bcd60e51b815260206004820152601d60248201527f4d757374206d6f766520746f20646966666572656e74207371756172650000006044820152606490fd5b5060ff811660ff85161415610456565b60405162461bcd60e51b8152602060048201526013602482015272496e76616c696420636f6f7264696e6174657360681b6044820152606490fd5b50600860ff821610610440565b50600860ff83161061043a565b50600860ff851610610434565b60405162461bcd60e51b815260206004820152601960248201527f4e6f74206120706c6179657220696e20746869732067616d65000000000000006044820152606490fd5b6001600160a01b03163314905086610421565b60405162461bcd60e51b815260206004820152600d60248201526c2737ba103cb7bab9103a3ab93760991b6044820152606490fd5b346101975760003660031901126101975761082761120c565b600080808060018060a01b03600154164790828215610855575bf11561084957005b6040513d6000823e3d90fd5b506108fc610841565b34610197576020366003190112610197576001600160a01b0361087f6111be565b1660005260056020526020604060002054604051908152f35b346101975760403660031901126101975760043560243560068110156101975781600052600360205260406000209160018060a01b0380845416331490811561094f575b8115610941575b501561090b57610904600160ff8161090996015460a01c166103f2816111ec565b61135c565b005b60405162461bcd60e51b815260206004820152600e60248201526d139bdd08185d5d1a1bdc9a5e995960921b6044820152606490fd5b9050600154163314846108e3565b8091506001850154163314906108dc565b346101975760203660031901126101975761097961120c565b600435600a55005b346101975760203660031901126101975760006101406040516109a3816112f3565b8281528260208201528260408201528260608201528260808201528260a08201528260c08201528260e0820152606061010082015282610120820152015260043560005260036020526040600020604051906109fe826112f3565b80546001600160a01b0390811683526001820154908116602084015260a01c60ff16610a29816111ec565b60408301526002810154606083015260038101546080830152600481015460a0830152600581015460c083015260068101546001600160a01b031660e0830152600781015467ffffffffffffffff81116106b45760405190610a9160208260051b018361132d565b808252602082016007840160005260206000206000915b838310610c2d57610100870185905260088681015460ff81811615156101208b0152911c16151561014088015260408051602080825289516001600160a01b0390811682840152908a0151168183015290880151889190610b08816111ec565b606082015260608201516080820152608082015160a082015260a082015160c082015260c082015160e082015260018060a01b0360e0830151166101008201526101008201516101606101208301526101808201815180915260206101a0840192019060005b818110610b97575050506101408361012084950151151582850152015115156101608301520390f35b9091926020610140600192610120875160ff815116835260ff85820151168584015260ff604082015116604084015260ff60608201511660608401526080810151610be1816111ec565b608084015260a0810151151560a084015260c0810151151560c084015260e0810151151560e0840152610100810151151561010084015201516101208201520194019101919091610b6e565b60026020600192604051610c4081611310565b60ff86548181168352818160081c1685840152818160101c166040840152818160181c1660608401528181861c16610c77816111ec565b6080840152818160281c16151560a0840152818160301c16151560c0840152818160381c16151560e084015260401c16151561010082015284860154610120820152815201920192019190610aa8565b34610197576000366003190112610197576001546040516001600160a01b039091168152602090f35b3461019757604036600319011261019757602435600435610d0f61120c565b81811015610d1f57600855600955005b60405162461bcd60e51b8152602060048201526014602482015273496e76616c6964207374616b65206c696d69747360601b6044820152606490fd5b3461019757600036600319011261019757610d7461120c565b600180546001600160a01b031981169091556000906001600160a01b03167f8be0079c531659141344cd1fd0a4f28419497f9722a3daafe3b4186f6b6457e08280a3005b34610197576020366003190112610197576001600160a01b03610dd96111be565b166000526005602052604080600020546006602052816000205482519182526020820152f35b34610197576020366003190112610197576001600160a01b03610e206111be565b1660005260066020526020604060002054604051908152f35b602036600319011261019757600435610e50611292565b803403610f3b576008548110610f29576009548111610f1757610e74600254611238565b8060025580600052600360205260086040600020336001600160601b0360a01b8254161781558360028201558260038201554260048201554260058201556001810160ff60a01b19815416905501600160ff19825416179055336000526004602052610ee481604060002061125d565b6040519182527f7dfb67e9ff596fca4da65c7eedb128cd1aac553af54b3c0cb733625a2480d8bd60203393a36001600055005b60405163735b16e360e01b8152600490fd5b604051631cc3b37b60e01b8152600490fd5b60405163493ebe7160e01b8152600490fd5b34610197576000366003190112610197576020600854604051908152f35b34610197576000366003190112610197576020600754604051908152f35b34610197576000366003190112610197576020600a54604051908152f35b3461019757602036600319011261019757600435610fc361120c565b60648111610fd057600755005b60405162461bcd60e51b815260206004820152600c60248201526b08ccaca40e8dede40d0d2ced60a31b6044820152606490fd5b3461019757602080600319360112610197576001600160a01b036110266111be565b1660005260048152604060002060405190818382549182815201908192600052846000209060005b868282106110a45786866110648288038361132d565b604051928392818401908285525180915260408401929160005b82811061108d57505050500390f35b83518552869550938101939281019260010161107e565b83548552909301926001928301920161104e565b34610197576020366003190112610197576004356000526003602052610140604060002060ff60018060a01b038083541692600181015491838360a01c166002830154600384015490600485015492600586015494600881600689015416970154976040519a8b521660208a015261112f816111ec565b60408901526060880152608087015260a086015260c085015260e0840152818116151561010084015260081c161515610120820152f35b346101975760403660031901126101975761117f6111be565b6001600160a01b0316600090815260046020526040902080546024359190821015610197576020916111b0916111d4565b90546040519160031b1c8152f35b600435906001600160a01b038216820361019757565b805482101561069e5760005260206000200190600090565b600611156111f657565b634e487b7160e01b600052602160045260246000fd5b6001546001600160a01b0316330361122057565b60405163118cdaa760e01b8152336004820152602490fd5b60001981146112475760010190565b634e487b7160e01b600052601160045260246000fd5b8054600160401b8110156106b45761127a916001820181556111d4565b819291549060031b91821b91600019901b1916179055565b6002600054146112a3576002600055565b604051633ee5aeb560e01b8152600490fd5b156112bc57565b60405162461bcd60e51b815260206004820152600f60248201526e47616d65206e6f742061637469766560881b6044820152606490fd5b610160810190811067ffffffffffffffff8211176106b457604052565b610140810190811067ffffffffffffffff8211176106b457604052565b90601f8019910116810190811067ffffffffffffffff8211176106b457604052565b9190820391821161124757565b91909160009281845260209060038252604091828620906001820191611381846111ec565b825460ff60a01b19811660a086901b60ff60a01b1617845588906113a4866111ec565b600286036115bd57505080546001600160a01b03168089526005835285892080546113ce90611238565b90555b6002820154918260011b92808404600214901517156115a957600754808402908482041484151715611595576103e861140c9104809461134f565b6001600160a01b039283169590919086156114f35750508981868282156114ea575b839283928392f1156114e057877f179c71ca886dcb57d7ec21b21417e53762b259503250d3c13169430c96fe62408587938a51908152a35b81159081156114ac575b5050507f69137706d65cad5bb2a9a944e02d6c3474190ffcaf7c1eb0e70474b5a52ecc62949596508351926114a4816111ec565b8352820152a2565b89809381938293600154169083906114d7575bf1156114cd57868080611470565b83513d88823e3d90fd5b506108fc6114bf565b86513d8b823e3d90fd5b506108fc61142e565b909160011c918b84825416818080808881958115968761158c575bf11561158057818086819389885416908390611577575bf11561156d5785848b938183945416858d518881527f179c71ca886dcb57d7ec21b21417e53762b259503250d3c13169430c96fe6240968791a35416938a51908152a3611466565b88513d8d823e3d90fd5b506108fc611525565b508951903d90823e3d90fd5b506108fc61150e565b634e487b7160e01b8b52601160045260248bfd5b634e487b7160e01b8a52601160045260248afd5b6115c6866111ec565b600386146115d5575b506113d1565b6001600160a01b0316808a5260058452868a208054919250906115f790611238565b9055386115cf56fea26469706673582212202b1a3fce89e9ae06c89763bba6778ab414d51611534e8155a3879eefabc7483264736f6c63430008140033",
  "linkReferences": {},
  "deployedLinkReferences": {}
}