{
  "_format": "hh-sol-artifact-1",
  "contractName": "ChessNFT",
  "sourceName": "contracts/ChessNFT.sol",
  "abi": [
    {
      "inputs": [],
      "stateMutability": "nonpayable",
      "type": "constructor"
    },
    {
      "inputs": [
        {
          "internalType": "address",
          "name": "sender",
          "type": "address"
        },
        {
          "internalType": "uint256",
          "name": "tokenId",
          "type": "uint256"
        },
        {
          "internalType": "address",
          "name": "owner",
          "type": "address"
        }
      ],
      "name": "ERC721IncorrectOwner",
      "type": "error"
    },
    {
      "inputs": [
        {
          "internalType": "address",
          "name": "operator",
          "type": "address"
        },
        {
          "internalType": "uint256",
          "name": "tokenId",
          "type": "uint256"
        }
      ],
      "name": "ERC721InsufficientApproval",
      "type": "error"
    },
    {
      "inputs": [
        {
          "internalType": "address",
          "name": "approver",
          "type": "address"
        }
      ],
      "name": "ERC721InvalidApprover",
      "type": "error"
    },
    {
      "inputs": [
        {
          "internalType": "address",
          "name": "operator",
          "type": "address"
        }
      ],
      "name": "ERC721InvalidOperator",
      "type": "error"
    },
    {
      "inputs": [
        {
          "internalType": "address",
          "name": "owner",
          "type": "address"
        }
      ],
      "name": "ERC721InvalidOwner",
      "type": "error"
    },
    {
      "inputs": [
        {
          "internalType": "address",
          "name": "receiver",
          "type": "address"
        }
      ],
      "name": "ERC721InvalidReceiver",
      "type": "error"
    },
    {
      "inputs": [
        {
          "internalType": "address",
          "name": "sender",
          "type": "address"
        }
      ],
      "name": "ERC721InvalidSender",
      "type": "error"
    },
    {
      "inputs": [
        {
          "internalType": "uint256",
          "name": "tokenId",
          "type": "uint256"
        }
      ],
      "name": "ERC721NonexistentToken",
      "type": "error"
    },
    {
      "inputs": [],
      "name": "InsufficientMintFee",
      "type": "error"
    },
    {
      "inputs": [],
      "name": "InvalidImageURI",
      "type": "error"
    },
    {
      "inputs": [],
      "name": "InvalidMintPrice",
      "type": "error"
    },
    {
      "inputs": [],
      "name": "InvalidName",
      "type": "error"
    },
    {
      "inputs": [],
      "name": "InvalidPieceCount",
      "type": "error"
    },
    {
      "inputs": [],
      "name": "InvalidRarity",
      "type": "error"
    },
    {
      "inputs": [],
      "name": "MaxSupplyReached",
      "type": "error"
    },
    {
      "inputs": [],
      "name": "MintingDisabled",
      "type": "error"
    },
    {
      "inputs": [],
      "name": "NotAuthorizedToBurn",
      "type": "error"
    },
    {
      "inputs": [
        {
          "internalType": "address",
          "name": "owner",
          "type": "address"
        }
      ],
      "name": "OwnableInvalidOwner",
      "type": "error"
    },
    {
      "inputs": [
        {
          "internalType": "address",
          "name": "account",
          "type": "address"
        }
      ],
      "name": "OwnableUnauthorizedAccount",
      "type": "error"
    },
    {
      "inputs": [],
      "name": "ReentrancyGuardReentrantCall",
      "type": "error"
    },
    {
      "inputs": [],
      "name": "TokenDoesNotExist",
      "type": "error"
    },
    {
      "anonymous": false,
      "inputs": [
        {
          "indexed": true,
          "internalType": "address",
          "name": "owner",
          "type": "address"
        },
        {
          "indexed": true,
          "internalType": "address",
          "name": "approved",
          "type": "address"
        },
        {
          "indexed": true,
          "internalType": "uint256",
          "name": "tokenId",
          "type": "uint256"
        }
      ],
      "name": "Approval",
      "type": "event"
    },
    {
      "anonymous": false,
      "inputs": [
        {
          "indexed": true,
          "internalType": "address",
          "name": "owner",
          "type": "address"
        },
        {
          "indexed": true,
          "internalType": "address",
          "name": "operator",
          "type": "address"
        },
        {
          "indexed": false,
          "internalType": "bool",
          "name": "approved",
          "type": "bool"
        }
      ],
      "name": "ApprovalForAll",
      "type": "event"
    },
    {
      "anonymous": false,
      "inputs": [
        {
          "indexed": false,
          "internalType": "uint256",
          "name": "_fromTokenId",
          "type": "uint256"
        },
        {
          "indexed": false,
          "internalType": "uint256",
          "name": "_toTokenId",
          "type": "uint256"
        }
      ],
      "name": "BatchMetadataUpdate",
      "type": "event"
    },
    {
      "anonymous": false,
      "inputs": [
        {
          "indexed": true,
          "internalType": "uint256",
          "name": "tokenId",
          "type": "uint256"
        },
        {
          "indexed": true,
          "internalType": "address",
          "name": "owner",
          "type": "address"
        },
        {
          "indexed": false,
          "internalType": "string",
          "name": "setName",
          "type": "string"
        }
      ],
      "name": "ChessSetMinted",
      "type": "event"
    },
    {
      "anonymous": false,
      "inputs": [
        {
          "indexed": true,
          "internalType": "address",
          "name": "owner",
          "type": "address"
        },
        {
          "indexed": false,
          "internalType": "uint256",
          "name": "amount",
          "type": "uint256"
        }
      ],
      "name": "FeesWithdrawn",
      "type": "event"
    },
    {
      "anonymous": false,
      "inputs": [
        {
          "indexed": false,
          "internalType": "uint256",
          "name": "newMaxSupply",
          "type": "uint256"
        }
      ],
      "name": "MaxSupplyUpdated",
      "type": "event"
    },
    {
      "anonymous": false,
      "inputs": [
        {
          "indexed": false,
          "internalType": "uint256",
          "name": "_tokenId",
          "type": "uint256"
        }
      ],
      "name": "MetadataUpdate",
      "type": "event"
    },
    {
      "anonymous": false,
      "inputs": [
        {
          "indexed": false,
          "internalType": "uint256",
          "name": "newFee",
          "type": "uint256"
        }
      ],
      "name": "MintFeeUpdated",
      "type": "event"
    },
    {
      "anonymous": false,
      "inputs": [
        {
          "indexed": true,
          "internalType": "uint256",
          "name": "tokenId",
          "type": "uint256"
        },
        {
          "indexed": false,
          "internalType": "uint256",
          "name": "newPrice",
          "type": "uint256"
        }
      ],
      "name": "MintPriceUpdated",
      "type": "event"
    },
    {
      "anonymous": false,
      "inputs": [
        {
          "indexed": false,
          "internalType": "bool",
          "name": "enabled",
          "type": "bool"
        }
      ],
      "name": "MintingEnabledUpdated",
      "type": "event"
    },
    {
      "anonymous": false,
      "inputs": [
        {
          "indexed": true,
          "internalType": "uint256",
          "name": "tokenId",
          "type": "uint256"
        },
        {
          "indexed": true,
          "internalType": "address",
          "name": "owner",
          "type": "address"
        }
      ],
      "name": "NFTBurned",
      "type": "event"
    },
    {
      "anonymous": false,
      "inputs": [
        {
          "indexed": true,
          "internalType": "uint256",
          "name": "tokenId",
          "type": "uint256"
        },
        {
          "indexed": true,
          "internalType": "address",
          "name": "owner",
          "type": "address"
        },
        {
          "indexed": false,
          "internalType": "enum ChessNFT.NFTType",
          "name": "nftType",
          "type": "uint8"
        },
        {
          "indexed": false,
          "internalType": "enum ChessNFT.Rarity",
          "name": "rarity",
          "type": "uint8"
        }
      ],
      "name": "NFTMinted",
      "type": "event"
    },
    {
      "anonymous": false,
      "inputs": [
        {
          "indexed": true,
          "internalType": "address",
          "name": "previousOwner",
          "type": "address"
        },
        {
          "indexed": true,
          "internalType": "address",
          "name": "newOwner",
          "type": "address"
        }
      ],
      "name": "OwnershipTransferred",
      "type": "event"
    },
    {
      "anonymous": false,
      "inputs": [
        {
          "indexed": true,
          "internalType": "uint256",
          "name": "tokenId",
          "type": "uint256"
        },
        {
          "indexed": false,
          "internalType": "enum ChessNFT.Rarity",
          "name": "newRarity",
          "type": "uint8"
        }
      ],
      "name": "RarityUpdated",
      "type": "event"
    },
    {
      "anonymous": false,
      "inputs": [
        {
          "indexed": true,
          "internalType": "address",
          "name": "from",
          "type": "address"
        },
        {
          "indexed": true,
          "internalType": "address",
          "name": "to",
          "type": "address"
        },
        {
          "indexed": true,
          "internalType": "uint256",
          "name": "tokenId",
          "type": "uint256"
        }
      ],
      "name": "Transfer",
      "type": "event"
    },
    {
      "inputs": [
        {
          "internalType": "address",
          "name": "to",
          "type": "address"
        },
        {
          "internalType": "uint256",
          "name": "tokenId",
          "type": "uint256"
        }
      ],
      "name": "approve",
      "outputs": [],
      "stateMutability": "nonpayable",
      "type": "function"
    },
    {
      "inputs": [
        {
          "internalType": "address",
          "name": "owner",
          "type": "address"
        }
      ],
      "name": "balanceOf",
      "outputs": [
        {
          "internalType": "uint256",
          "name": "",
          "type": "uint256"
        }
      ],
      "stateMutability": "view",
      "type": "function"
    },
    {
      "inputs": [
        {
          "internalType": "uint256",
          "name": "tokenId",
          "type": "uint256"
        }
      ],
      "name": "burnNFT",
      "outputs": [],
      "stateMutability": "nonpayable",
      "type": "function"
    },
    {
      "inputs": [
        {
          "internalType": "uint256",
          "name": "tokenId",
          "type": "uint256"
        }
      ],
      "name": "getApproved",
      "outputs": [
        {
          "internalType": "address",
          "name": "",
          "type": "address"
        }
      ],
      "stateMutability": "view",
      "type": "function"
    },
    {
      "inputs": [],
      "name": "getCollectionStats",
      "outputs": [
        {
          "internalType": "uint256",
          "name": "totalSupply",
          "type": "uint256"
        },
        {
          "internalType": "uint256",
          "name": "totalMinted",
          "type": "uint256"
        },
        {
          "internalType": "uint256",
          "name": "totalBurned",
          "type": "uint256"
        },
        {
          "internalType": "uint256",
          "name": "piecesCount",
          "type": "uint256"
        },
        {
          "internalType": "uint256",
          "name": "boardsCount",
          "type": "uint256"
        },
        {
          "internalType": "uint256",
          "name": "avatarsCount",
          "type": "uint256"
        }
      ],
      "stateMutability": "view",
      "type": "function"
    },
    {
      "inputs": [
        {
          "internalType": "uint256",
          "name": "tokenId",
          "type": "uint256"
        }
      ],
      "name": "getNFTMetadata",
      "outputs": [
        {
          "components": [
            {
              "internalType": "enum ChessNFT.NFTType",
              "name": "nftType",
              "type": "uint8"
            },
            {
              "internalType": "enum ChessNFT.Rarity",
              "name": "rarity",
              "type": "uint8"
            },
            {
              "internalType": "string",
              "name": "name",
              "type": "string"
            },
            {
              "internalType": "string",
              "name": "description",
              "type": "string"
            },
            {
              "internalType": "string",
              "name": "imageURI",
              "type": "string"
            },
            {
              "internalType": "uint256",
              "name": "mintPrice",
              "type": "uint256"
            },
            {
              "internalType": "bool",
              "name": "isTradeable",
              "type": "bool"
            },
            {
              "internalType": "uint256",
              "name": "createdAt",
              "type": "uint256"
            },
            {
              "internalType": "address",
              "name": "creator",
              "type": "address"
            }
          ],
          "internalType": "struct ChessNFT.NFTMetadata",
          "name": "",
          "type": "tuple"
        }
      ],
      "stateMutability": "view",
      "type": "function"
    },
    {
      "inputs": [
        {
          "internalType": "address",
          "name": "owner",
          "type": "address"
        }
      ],
      "name": "getTokensByOwner",
      "outputs": [
        {
          "internalType": "uint256[]",
          "name": "",
          "type": "uint256[]"
        }
      ],
      "stateMutability": "view",
      "type": "function"
    },
    {
      "inputs": [
        {
          "internalType": "enum ChessNFT.Rarity",
          "name": "rarity",
          "type": "uint8"
        }
      ],
      "name": "getTokensByRarity",
      "outputs": [
        {
          "internalType": "uint256[]",
          "name": "",
          "type": "uint256[]"
        }
      ],
      "stateMutability": "view",
      "type": "function"
    },
    {
      "inputs": [
        {
          "internalType": "enum ChessNFT.NFTType",
          "name": "nftType",
          "type": "uint8"
        }
      ],
      "name": "getTokensByType",
      "outputs": [
        {
          "internalType": "uint256[]",
          "name": "",
          "type": "uint256[]"
        }
      ],
      "stateMutability": "view",
      "type": "function"
    },
    {
      "inputs": [
        {
          "internalType": "address",
          "name": "owner",
          "type": "address"
        },
        {
          "internalType": "address",
          "name": "operator",
          "type": "address"
        }
      ],
      "name": "isApprovedForAll",
      "outputs": [
        {
          "internalType": "bool",
          "name": "",
          "type": "bool"
        }
      ],
      "stateMutability": "view",
      "type": "function"
    },
    {
      "inputs": [],
      "name": "maxSupply",
      "outputs": [
        {
          "internalType": "uint256",
          "name": "",
          "type": "uint256"
        }
      ],
      "stateMutability": "view",
      "type": "function"
    },
    {
      "inputs": [
        {
          "internalType": "string",
          "name": "setName",
          "type": "string"
        },
        {
          "internalType": "string",
          "name": "description",
          "type": "string"
        },
        {
          "internalType": "string",
          "name": "imageURI",
          "type": "string"
        },
        {
          "internalType": "string[]",
          "name": "pieceURIs",
          "type": "string[]"
        }
      ],
      "name": "mintChessSet",
      "outputs": [],
      "stateMutability": "payable",
      "type": "function"
    },
    {
      "inputs": [],
      "name": "mintFee",
      "outputs": [
        {
          "internalType": "uint256",
          "name": "",
          "type": "uint256"
        }
      ],
      "stateMutability": "view",
      "type": "function"
    },
    {
      "inputs": [
        {
          "internalType": "enum ChessNFT.NFTType",
          "name": "nftType",
          "type": "uint8"
        },
        {
          "internalType": "enum ChessNFT.Rarity",
          "name": "rarity",
          "type": "uint8"
        },
        {
          "internalType": "string",
          "name": "name",
          "type": "string"
        },
        {
          "internalType": "string",
          "name": "description",
          "type": "string"
        },
        {
          "internalType": "string",
          "name": "imageURI",
          "type": "string"
        },
        {
          "internalType": "uint256",
          "name": "mintPrice",
          "type": "uint256"
        }
      ],
      "name": "mintNFT",
      "outputs": [],
      "stateMutability": "payable",
      "type": "function"
    },
    {
      "inputs": [],
      "name": "mintingEnabled",
      "outputs": [
        {
          "internalType": "bool",
          "name": "",
          "type": "bool"
        }
      ],
      "stateMutability": "view",
      "type": "function"
    },
    {
      "inputs": [],
      "name": "name",
      "outputs": [
        {
          "internalType": "string",
          "name": "",
          "type": "string"
        }
      ],
      "stateMutability": "view",
      "type": "function"
    },
    {
      "inputs": [],
      "name": "owner",
      "outputs": [
        {
          "internalType": "address",
          "name": "",
          "type": "address"
        }
      ],
      "stateMutability": "view",
      "type": "function"
    },
    {
      "inputs": [
        {
          "internalType": "uint256",
          "name": "tokenId",
          "type": "uint256"
        }
      ],
      "name": "ownerOf",
      "outputs": [
        {
          "internalType": "address",
          "name": "",
          "type": "address"
        }
      ],
      "stateMutability": "view",
      "type": "function"
    },
    {
      "inputs": [
        {
          "internalType": "address",
          "name": "",
          "type": "address"
        },
        {
          "internalType": "uint256",
          "name": "",
          "type": "uint256"
        }
      ],
      "name": "ownerTokens",
      "outputs": [
        {
          "internalType": "uint256",
          "name": "",
          "type": "uint256"
        }
      ],
      "stateMutability": "view",
      "type": "function"
    },
    {
      "inputs": [
        {
          "internalType": "enum ChessNFT.Rarity",
          "name": "",
          "type": "uint8"
        }
      ],
      "name": "rarityCounts",
      "outputs": [
        {
          "internalType": "uint256",
          "name": "",
          "type": "uint256"
        }
      ],
      "stateMutability": "view",
      "type": "function"
    },
    {
      "inputs": [],
      "name": "renounceOwnership",
      "outputs": [],
      "stateMutability": "nonpayable",
      "type": "function"
    },
    {
      "inputs": [
        {
          "internalType": "address",
          "name": "from",
          "type": "address"
        },
        {
          "internalType": "address",
          "name": "to",
          "type": "address"
        },
        {
          "internalType": "uint256",
          "name": "tokenId",
          "type": "uint256"
        }
      ],
      "name": "safeTransferFrom",
      "outputs": [],
      "stateMutability": "nonpayable",
      "type": "function"
    },
    {
      "inputs": [
        {
          "internalType": "address",
          "name": "from",
          "type": "address"
        },
        {
          "internalType": "address",
          "name": "to",
          "type": "address"
        },
        {
          "internalType": "uint256",
          "name": "tokenId",
          "type": "uint256"
        },
        {
          "internalType": "bytes",
          "name": "data",
          "type": "bytes"
        }
      ],
      "name": "safeTransferFrom",
      "outputs": [],
      "stateMutability": "nonpayable",
      "type": "function"
    },
    {
      "inputs": [
        {
          "internalType": "address",
          "name": "operator",
          "type": "address"
        },
        {
          "internalType": "bool",
          "name": "approved",
          "type": "bool"
        }
      ],
      "name": "setApprovalForAll",
      "outputs": [],
      "stateMutability": "nonpayable",
      "type": "function"
    },
    {
      "inputs": [
        {
          "internalType": "uint256",
          "name": "newMaxSupply",
          "type": "uint256"
        }
      ],
      "name": "setMaxSupply",
      "outputs": [],
      "stateMutability": "nonpayable",
      "type": "function"
    },
    {
      "inputs": [
        {
          "internalType": "uint256",
          "name": "newFee",
          "type": "uint256"
        }
      ],
      "name": "setMintFee",
      "outputs": [],
      "stateMutability": "nonpayable",
      "type": "function"
    },
    {
      "inputs": [
        {
          "internalType": "bool",
          "name": "enabled",
          "type": "bool"
        }
      ],
      "name": "setMintingEnabled",
      "outputs": [],
      "stateMutability": "nonpayable",
      "type": "function"
    },
    {
      "inputs": [
        {
          "internalType": "bytes4",
          "name": "interfaceId",
          "type": "bytes4"
        }
      ],
      "name": "supportsInterface",
      "outputs": [
        {
          "internalType": "bool",
          "name": "",
          "type": "bool"
        }
      ],
      "stateMutability": "view",
      "type": "function"
    },
    {
      "inputs": [],
      "name": "symbol",
      "outputs": [
        {
          "internalType": "string",
          "name": "",
          "type": "string"
        }
      ],
      "stateMutability": "view",
      "type": "function"
    },
    {
      "inputs": [
        {
          "internalType": "uint256",
          "name": "",
          "type": "uint256"
        }
      ],
      "name": "tokenMetadata",
      "outputs": [
        {
          "internalType": "enum ChessNFT.NFTType",
          "name": "nftType",
          "type": "uint8"
        },
        {
          "internalType": "enum ChessNFT.Rarity",
          "name": "rarity",
          "type": "uint8"
        },
        {
          "internalType": "string",
          "name": "name",
          "type": "string"
        },
        {
          "internalType": "string",
          "name": "description",
          "type": "string"
        },
        {
          "internalType": "string",
          "name": "imageURI",
          "type": "string"
        },
        {
          "internalType": "uint256",
          "name": "mintPrice",
          "type": "uint256"
        },
        {
          "internalType": "bool",
          "name": "isTradeable",
          "type": "bool"
        },
        {
          "internalType": "uint256",
          "name": "createdAt",
          "type": "uint256"
        },
        {
          "internalType": "address",
          "name": "creator",
          "type": "address"
        }
      ],
      "stateMutability": "view",
      "type": "function"
    },
    {
      "inputs": [
        {
          "internalType": "uint256",
          "name": "tokenId",
          "type": "uint256"
        }
      ],
      "name": "tokenURI",
      "outputs": [
        {
          "internalType": "string",
          "name": "",
          "type": "string"
        }
      ],
      "stateMutability": "view",
      "type": "function"
    },
    {
      "inputs": [
        {
          "internalType": "address",
          "name": "from",
          "type": "address"
        },
        {
          "internalType": "address",
          "name": "to",
          "type": "address"
        },
        {
          "internalType": "uint256",
          "name": "tokenId",
          "type": "uint256"
        }
      ],
      "name": "transferFrom",
      "outputs": [],
      "stateMutability": "nonpayable",
      "type": "function"
    },
    {
      "inputs": [
        {
          "internalType": "address",
          "name": "newOwner",
          "type": "address"
        }
      ],
      "name": "transferOwnership",
      "outputs": [],
      "stateMutability": "nonpayable",
      "type": "function"
    },
    {
      "inputs": [
        {
          "internalType": "enum ChessNFT.NFTType",
          "name": "",
          "type": "uint8"
        }
      ],
      "name": "typeCounts",
      "outputs": [
        {
          "internalType": "uint256",
          "name": "",
          "type": "uint256"
        }
      ],
      "stateMutability": "view",
      "type": "function"
    },
    {
      "inputs": [
        {
          "internalType": "uint256",
          "name": "tokenId",
          "type": "uint256"
        },
        {
          "internalType": "uint256",
          "name": "newPrice",
          "type": "uint256"
        }
      ],
      "name": "updateMintPrice",
      "outputs": [],
      "stateMutability": "nonpayable",
      "type": "function"
    },
    {
      "inputs": [
        {
          "internalType": "uint256",
          "name": "tokenId",
          "type": "uint256"
        },
        {
          "internalType": "enum ChessNFT.Rarity",
          "name": "newRarity",
          "type": "uint8"
        }
      ],
      "name": "updateRarity",
      "outputs": [],
      "stateMutability": "nonpayable",
      "type": "function"
    },
    {
      "inputs": [],
      "name": "withdrawFees",
      "outputs": [],
      "stateMutability": "nonpayable",
      "type": "function"
    }
  ],
  "bytecode": "0x6080346200039b576001600160401b03906040908082018381118282101762000385578252600b81526020916a10da195cdcd19a4813919560aa1b8383015280519381850185811082821117620003855782526005855264434845535360d81b84860152825181811162000385576000948554916001958684811c941680156200037a575b8385101462000366578190601f9485811162000313575b508390858311600114620002af578992620002a3575b5050600019600383901b1c191690861b1786555b86519283116200028f5784548581811c9116801562000284575b82821014620002705782811162000228575b5080918311600114620001bf575084958293949592620001b3575b5050600019600383901b1c191690831b1782555b33156200019c5760078054336001600160a01b03198216811790925591519390916001600160a01b0316907f8be0079c531659141344cd1fd0a4f28419497f9722a3daafe3b4186f6b6457e09080a380600855662386f26fc10000600e55612710600f5560ff19601054161760105561342b9081620003a18239f35b51631e4fbdf760e01b815260048101839052602490fd5b0151905038806200010c565b90601f198316968587528287209287905b898210620002105750508386979896959610620001f6575b505050811b01825562000120565b015160001960f88460031b161c19169055388080620001e8565b808885968294968601518155019501930190620001d0565b8587528187208380860160051c82019284871062000266575b0160051c019086905b8281106200025a575050620000f1565b8881550186906200024a565b9250819262000241565b634e487b7160e01b87526022600452602487fd5b90607f1690620000df565b634e487b7160e01b86526041600452602486fd5b015190503880620000b1565b898052848a208994509190601f1984168b5b87828210620002fc5750508411620002e2575b505050811b018655620000c5565b015160001960f88460031b161c19169055388080620002d4565b8385015186558c97909501949384019301620002c1565b9091508880528389208580850160051c8201928686106200035c575b918a91869594930160051c01915b8281106200034d5750506200009b565b8b81558594508a91016200033d565b925081926200032f565b634e487b7160e01b88526022600452602488fd5b93607f169362000084565b634e487b7160e01b600052604160045260246000fd5b600080fdfe608080604052600436101561001357600080fd5b60003560e01c90816301ffc9a7146127c557508063028c13ab146126f957806306fdde0314612656578063081812fc14612638578063095ea7b31461255157806313966db51461253357806323b872dd1461251c5780632890e0d7146121a657806328b600311461214e57806340398d67146120ca57806342842e0e1461209c578063476343ee1461201b5780634ea3871a14611fb95780635894bd5114611f595780636352211e14611f295780636914db6014611e475780636be9a6f114611c895780636c87469014611bc65780636f8b44b014611b7057806370a0823114611b17578063715018a614611aba578063891fab2c14611a925780638da5cb5b14611a6957806395d89b411461198a5780639fd6db1214611967578063a22cb465146118b9578063a3fbbb7414611888578063a6ec093114610b33578063aa86940e14610a5c578063b17c25eb14610447578063b88d4fde146103da578063c87b56dd1461037d578063d5abeb011461035f578063e985e9c514610309578063ec9ca25814610290578063eddd0d9c146102445763f2fde38b146101b657600080fd5b3461023f57602036600319011261023f576101cf6128cd565b6101d7612b67565b6001600160a01b0390811690811561022657600754826001600160601b0360a01b821617600755167f8be0079c531659141344cd1fd0a4f28419497f9722a3daafe3b4186f6b6457e0600080a3005b604051631e4fbdf760e01b815260006004820152602490fd5b600080fd5b3461023f57602036600319011261023f577f38fbb1c8b109c430f0c030e7ed076cf5611a307773a4e8e365601e8f8bceaec66020600435610283612b67565b80600e55604051908152a1005b3461023f57604036600319011261023f576004357f2e1c9e000c6e8dda4d03536adb13b7cb6034ccff90d17f01de381e4d5097b52560206024356102d2612b67565b6102ee6001600160a01b036102e686612d57565b161515613380565b83600052600a825280600460406000200155604051908152a2005b3461023f57604036600319011261023f576103226128cd565b61032a6128e3565b9060018060a01b03809116600052600560205260406000209116600052602052602060ff604060002054166040519015158152f35b3461023f57600036600319011261023f576020600f54604051908152f35b3461023f57602036600319011261023f5760043561039a81612d57565b5060005260066020526103d66103b360406000206129ee565b60006040516103c1816129b2565b526040519182916020835260208301906128a8565b0390f35b3461023f57608036600319011261023f576103f36128cd565b6103fb6128e3565b90604435606435926001600160401b03841161023f573660238501121561023f57610433610445943690602481600401359101612afb565b9261043f838383612bb8565b33612d92565b005b60c036600319011261023f5760048035101561023f576005602435101561023f576044356001600160401b03811161023f57610487903690600401612b32565b6064356001600160401b03811161023f576104a6903690600401612b32565b6084356001600160401b03811161023f576104c5903690600401612b32565b6104cd6132f3565b60ff6010541615610a4a57600e543410610a3957600954600f54811015610a2757835115610a1557815115610a035761050590612ee0565b91826009556040519361051785612996565b61052360043586612eef565b61053260243560208701612efb565b6040850152606084015280608084015260a43560a0840152600160c08401524260e08401523361010084015281600052600a602052604060002092805160048110156109ed5760ff80198654169116178455602081015160058110156109ed5761059c9085612f07565b60408101518051906001600160401b0382116108735781906105c1600188015461295c565b601f81116109b8575b50602090601f83116001146109465760009261093b575b50508160011b916000199060031b1c19161760018501555b60608101518051906001600160401b03821161087357819061061e600288015461295c565b601f8111610906575b50602090601f831160011461089457600092610889575b50508160011b916000199060031b1c19161760028501555b60808101518051906001600160401b03821161087357610679600387015461295c565b601f8111610833575b50602090601f83116001146107bc5791806107659697926007946000926107b1575b50508160011b916000199060031b1c19161760038201555b60a083015160048201556106e560c08401511515600583019060ff801983541691151516179055565b60e08301516006820155019061010060018060a01b03910151166001600160601b0360a01b82541617905533600052600b602052610727836040600020612f3d565b610732600435612aae565b61073c8154612ee0565b9055610749602435612ac7565b6107538154612ee0565b905561075f8333612f65565b82613193565b6040519061077582600435612a94565b61078460208301602435612aa1565b7f1cebf3afea95d47722e3c163fe073afdfd2f301be4499121c31c6a5875a0e60f60403393a36001600855005b0151905088806106a4565b906003870160005260206000209160005b601f198516811061081b57509261076596979260019260079583601f19811610610802575b505050811b0160038201556106bc565b015160001960f88460031b161c191690558880806107f2565b919260206001819286850151815501940192016107cd565b61086390600388016000526020600020601f850160051c81019160208610610869575b601f0160051c0190612f26565b86610682565b9091508190610856565b634e487b7160e01b600052604160045260246000fd5b01519050868061063e565b9250600287016000526020600020906000935b601f19841685106108eb576001945083601f198116106108d2575b505050811b016002850155610656565b015160001960f88460031b161c191690558680806108c2565b818101518355602094850194600190930192909101906108a7565b61093590600289016000526020600020601f850160051c8101916020861061086957601f0160051c0190612f26565b87610627565b0151905086806105e1565b9250600187016000526020600020906000935b601f198416851061099d576001945083601f19811610610984575b505050811b0160018501556105f9565b015160001960f88460031b161c19169055868080610974565b81810151835560209485019460019093019290910190610959565b6109e790600189016000526020600020601f850160051c8101916020861061086957601f0160051c0190612f26565b876105ca565b634e487b7160e01b600052602160045260246000fd5b60405163aa9e640160e01b8152600490fd5b60405163430f13b360e01b8152600490fd5b60405163d05cb60960e01b8152600490fd5b604051623d6c2560e81b8152600490fd5b60405163af79b43760e01b8152600490fd5b3461023f5760208060031936011261023f57600560043581811015918261023f5760009260095491610a8d836133c3565b9560015b84811115610ae1578787610aa4816133c3565b9160005b828110610abd57604051806103d6868261284a565b80610acb610adc9284613316565b51610ad68287613316565b52612ee0565b610aa8565b80600052600a82528360ff60406000205460081c16906109ed57838110156109ed578614610b18575b610b1390612ee0565b610a91565b95610b2b8188610ad6610b13948c613316565b969050610b0a565b608036600319011261023f576004356001600160401b03811161023f57610b5e903690600401612b32565b6024356001600160401b03811161023f57610b7d903690600401612b32565b6044356001600160401b03811161023f57610b9c903690600401612b32565b90606435916001600160401b03831161023f573660238401121561023f578260040135610bc881612b50565b93610bd660405195866129cd565b8185526024602086019260051b8201019036821161023f5760248101925b8284106118595750505050610c076132f3565b60ff6010541615610a4a57600e5491828060011b0460021483151715611843578260011b3410610a3957601084510361183157610c45600954612ee0565b928360095560405191610c5783612996565b6003835260026020840152866040840152606083015282608083015260011b60a0820152600160c08201524260e08201523361010082015282600052600a602052604060002090805160048110156109ed5760ff80198454169116178255602081015160058110156109ed57610ccd9083612f07565b60408101518051906001600160401b038211610873578190610cf2600186015461295c565b601f81116117fc575b50602090601f831160011461178a5760009261177f575b50508160011b916000199060031b1c19161760018301555b60608101518051906001600160401b038211610873578190610d4f600286015461295c565b601f811161174a575b50602090601f83116001146116d8576000926116cd575b50508160011b916000199060031b1c19161760028301555b60808101518051906001600160401b03821161087357610daa600385015461295c565b601f8111611698575b50602090601f8311600114611620579180610ec896959492600794600092611615575b50508160011b916000199060031b1c19161760038401555b60a08101516004840155610e1760c08201511515600585019060ff801983541691151516179055565b60e0810151600684015561010060018060a01b03910151166001600160601b0360a01b82840154161791015533600052600b602052610e5a836040600020612f3d565b6003600052600c6020527fc0da782485e77ae272268ae0a3ff44c1552ecb60b3743924de17a815e0a3cfd78054610e9090612ee0565b90556002600052600d6020527f10a81eed9d63d16face5e76357905348e6253d3394086026bb2bf2145d7cc249805461075390612ee0565b60405190602082527f36681893f478ba58d651477f08756ca9e1ea5164ff1993fb251be091aa5579a1339280610f0160208201886128a8565b0390a36000905b60108210610f17576001600855005b610f22600954612ee0565b600981905590600083807a184f03e93ff9f4daa797ed6e38ed64bf6a1f01000000000000000080821015611606575b50600a906d04ee2d6d415b85acef8100000000808210156115f9575b50662386f26fc10000808210156115ec575b506305f5e100808210156115df575b50612710808210156115d2575b5060648110156115c4575b10156115ba575b600a60216001840193610fbf85612ae0565b94610fcd60405196876129cd565b808652610fdc601f1991612ae0565b013660208701378401015b60001901916f181899199a1a9b1b9c1cb0b131b232b360811b8282061a83530490811561101657600a90610fe7565b50509291909261106e60405191828751611037816020840160208c01612885565b8101660102834b2b1b2960cd1b602082015282519061105f8260279560208785019101612885565b010360078101845201826129cd565b6110788385613316565b516040519161108683612996565b600083526000602084015260408301526040518060408101106001600160401b036040830111176108735760408101604052601c81527f50617274206f66206120636f6d706c6574652063686573732073657400000000602082015260608301526080820152600060a0820152600060c08201524260e08201523361010082015281600052600a6020526040600020815160048110156109ed5760ff80198354169116178155602082015160058110156109ed576111449082612f07565b60408201518051906001600160401b038211610873578190611169600185015461295c565b601f8111611585575b50602090601f831160011461151357600092611508575b50508160011b916000199060031b1c19161760018201555b60608201518051906001600160401b0382116108735781906111c6600285015461295c565b601f81116114d3575b50602090601f831160011461146157600092611456575b50508160011b916000199060031b1c19161760028201555b60808201518051906001600160401b03821161087357611221600384015461295c565b601f8111611421575b50602090601f83116001146113a8579180611397979695949260079460009261139d575b50508160011b916000199060031b1c19161760038201555b60a0830151600482015561128f60c08401511515600583019060ff801983541691151516179055565b60e08301516006820155019061010060018060a01b03910151166001600160601b0360a01b82541617905533600052600b6020526112d1816040600020612f3d565b60008052600c6020527f13649b2456f1b42fef0f0040b3aaeabcd21a76a0f3f5defd4f583839455116e8805461130690612ee0565b905560008052600d6020527f81955a0a11e65eac625c29e8882660bae4e165a75d72780094acae8ece9a29ee805461133d90612ee0565b90556113498133612f65565b61135d6113568386613316565b5182613193565b6040519060008252600060208301527f1cebf3afea95d47722e3c163fe073afdfd2f301be4499121c31c6a5875a0e60f60403393a3612ee0565b90610f08565b015190508a8061124e565b906003840160005260206000209160005b601f1985168110611409575092611397979695949260019260079583601f198116106113f0575b505050811b016003820155611266565b015160001960f88460031b161c191690558a80806113e0565b919260206001819286850151815501940192016113b9565b61145090600385016000526020600020601f850160051c8101916020861061086957601f0160051c0190612f26565b8861122a565b0151905088806111e6565b9250600284016000526020600020906000935b601f19841685106114b8576001945083601f1981161061149f575b505050811b0160028201556111fe565b015160001960f88460031b161c1916905588808061148f565b81810151835560209485019460019093019290910190611474565b61150290600286016000526020600020601f850160051c8101916020861061086957601f0160051c0190612f26565b896111cf565b015190508880611189565b9250600184016000526020600020906000935b601f198416851061156a576001945083601f19811610611551575b505050811b0160018201556111a1565b015160001960f88460031b161c19169055888080611541565b81810151835560209485019460019093019290910190611526565b6115b490600186016000526020600020601f850160051c8101916020861061086957601f0160051c0190612f26565b89611172565b9060010190610fad565b606460029104930192610fa6565b6004910493019288610f9b565b6008910493019288610f8e565b6010910493019288610f7f565b6020910493019288610f6d565b6040935086049050600a610f51565b015190508a80610dd6565b906003850160005260206000209160005b601f1985168110611680575092610ec89695949260019260079583601f19811610611667575b505050811b016003840155610dee565b015160001960f88460031b161c191690558a8080611657565b91926020600181928685015181550194019201611631565b6116c790600386016000526020600020601f850160051c8101916020861061086957601f0160051c0190612f26565b88610db3565b015190508880610d6f565b9250600285016000526020600020906000935b601f198416851061172f576001945083601f19811610611716575b505050811b016002830155610d87565b015160001960f88460031b161c19169055888080611706565b818101518355602094850194600190930192909101906116eb565b61177990600287016000526020600020601f850160051c8101916020861061086957601f0160051c0190612f26565b89610d58565b015190508880610d12565b9250600185016000526020600020906000935b601f19841685106117e1576001945083601f198116106117c8575b505050811b016001830155610d2a565b015160001960f88460031b161c191690558880806117b8565b8181015183556020948501946001909301929091019061179d565b61182b90600187016000526020600020601f850160051c8101916020861061086957601f0160051c0190612f26565b89610cfb565b604051634a4f91b160e01b8152600490fd5b634e487b7160e01b600052601160045260246000fd5b83356001600160401b03811161023f5760209161187d839260243691870101612b32565b815201930192610bf4565b3461023f57602036600319011261023f57600435600581101561023f576118b0602091612ac7565b54604051908152f35b3461023f57604036600319011261023f576118d26128cd565b602435908115159081830361023f576001600160a01b031691821561194e576119209033600052600560205260406000208460005260205260406000209060ff801983541691151516179055565b6040519081527f17307eab39ab6107e8899845ad3d59bd9653f200f220920489ca2b5937696c3160203392a3005b604051630b61174360e31b815260048101849052602490fd5b3461023f57600036600319011261023f57602060ff601054166040519015158152f35b3461023f57600036600319011261023f57604051600060018054906119ae8261295c565b80855291818116908115611a4257506001146119e9575b6103d6846119d5818603826129cd565b6040519182916020835260208301906128a8565b600081815292507fb10e2d527612073b26eecdfd717e6a320cf44b4afac2b0732d9fcbe2b7fa0cf65b828410611a2a5750505081016020016119d5826119c5565b80546020858701810191909152909301928101611a12565b60ff191660208087019190915292151560051b850190920192506119d591508390506119c5565b3461023f57600036600319011261023f576007546040516001600160a01b039091168152602090f35b3461023f57602036600319011261023f57600435600481101561023f576118b0602091612aae565b3461023f57600036600319011261023f57611ad3612b67565b600780546001600160a01b031981169091556000906001600160a01b03167f8be0079c531659141344cd1fd0a4f28419497f9722a3daafe3b4186f6b6457e08280a3005b3461023f57602036600319011261023f576001600160a01b03611b386128cd565b168015611b575760005260036020526020604060002054604051908152f35b6040516322718ad960e21b815260006004820152602490fd5b3461023f57602036600319011261023f57600435611b8c612b67565b6009548110610a27576020817f7810bd47de260c3e9ee10061cf438099dd12256c79485f12f94dbccc981e806c92600f55604051908152a1005b3461023f57604036600319011261023f57600435602435600581101561023f5760207f3128a76fc6feb3f98733a1f86e8f4f8548db9ef7e925eb02f0be3054b48d38d891611c12612b67565b611c266001600160a01b036102e686612d57565b83600052600a8252611c4260ff60406000205460081c16612ac7565b611c4c815461332a565b9055611c5781612ac7565b611c618154612ee0565b905583600052600a8252611c79816040600020612f07565b611c866040518092612aa1565ba2005b3461023f5760208060031936011261023f57600435604051611caa81612996565b6000815260008382015260608060408301528080830152806080830152600060a0830152600060c0830152600060e083015260006101008093015260018060a01b0380611cf685612d57565b1615611e35578493600052600a845260406000209260405190611d1882612996565b845494611d2860ff871684612eef565b8683019560081c60ff16611d3c9087612efb565b611d48600182016129ee565b6040840190815295611d5c600283016129ee565b848701908152611d6e600384016129ee565b6080860190815260048401549860a08701998a52600585015460ff169360c0880194151585528860068701549660e08a019788526007015416978781019889526040519d8e9d8e528d01905190611dc491612a94565b5160408c01611dd291612aa1565b5161012080998c01526101408b01611de9916128a8565b9151601f1992838c82030160808d0152611e02916128a8565b9051918a82030160a08b0152611e17916128a8565b965160c089015251151560e088015251908601525116908301520390f35b60405163677510db60e11b8152600490fd5b3461023f57602036600319011261023f57600435600052600a60205260ff602060406000208054611e7a600183016129ee565b91611e87600282016129ee565b92611f0d611e97600384016129ee565b611eff600485015496611ef18a60058801541695611ee0600689015498600760018060a01b0391015416996040519d8e9d8e611ed581848616612a94565b019160081c16612aa1565b6101208060408d01528b01906128a8565b9089820360608b01526128a8565b9087820360808901526128a8565b9360a0860152151560c085015260e08401526101008301520390f35b3461023f57602036600319011261023f576020611f47600435612d57565b6040516001600160a01b039091168152f35b3461023f57600036600319011261023f5760c060095460008052600c6020526040600020546001600052604060002054600260005260406000205491604051938085526020850152600060408501526060840152608083015260a0820152f35b3461023f57602036600319011261023f5760043580151580910361023f5760207f93db1a19119106305b5295db63287ca1cbc74261beab00f0f902f1d0a070429491612003612b67565b60ff196010541660ff821617601055604051908152a1005b3461023f57600036600319011261023f57612034612b67565b4760018060a01b036000808080858560075416828215612093575bf1156120875760207fc0819c13be868895eb93e40eaceb96de976442fa1d404e5c55f14bb65a8c489a916007541692604051908152a2005b6040513d6000823e3d90fd5b506108fc61204f565b3461023f576104456120ad366128f9565b90604051926120bb846129b2565b6000845261043f838383612bb8565b3461023f5760208060031936011261023f576001600160a01b036120ec6128cd565b16600052600b8152604060002090604051908181845491828152019360005281600020916000905b828210612137576103d68561212b818903826129cd565b6040519182918261284a565b835486529485019460019384019390910190612114565b3461023f57604036600319011261023f576121676128cd565b6001600160a01b03166000908152600b602052604090208054602435919082101561023f576020916121989161292e565b90546040519160031b1c8152f35b3461023f5760208060031936011261023f57600435906121c582612d57565b6001600160a01b0390811633141580612508575b806124db575b6124c95782600052600a82526040600020604051926121fd84612996565b815461220c60ff821686612eef565b61221f60ff8387019260081c1682612efb565b60019461222d8685016129ee565b604082015261223e600285016129ee565b60608201528460076003956122548782016129ee565b6080850152600481015460a085015260ff600582015416151560c0850152600681015460e08501520154166101008201525160048110156109ed5761229890612aae565b6122a2815461332a565b9055519260058410156109ed576122b98594612ac7565b6122c3815461332a565b9055806122cf87612d57565b16600052600b82526040600020846000905b612406575b50509091925084600052600282526040600020541684600082159283156123d4575b828252600285526040822080546001600160a01b03191690557fddf252ad1be2c89b69c2b068fc378daa952ba7f163c4a11628f55a4df523b3ef8280a46123bb579161237e600792600a6000958787525261236b60408620938685558401613337565b61237760028401613337565b8201613337565b826004820155826005820155826006820155015533907f8f0a80450bfbfadc6d05658c9dc494e43beb79be53b44adbb146c6d5040f8770600080a3005b604051637e27328960e01b815260048101859052602490fd5b600083815260046020526040902080546001600160a01b03191690558082528585526040822082198154019055612308565b8154808210156124c3578861241b838561292e565b905490881b1c14612436575061243090612ee0565b856122e1565b909293949550600019928382019182116118435761246761245a612480938561292e565b905490891b1c918461292e565b90919082549060031b91821b91600019901b1916179055565b805480156124ad57820191612495838361292e565b9091825491881b1b19169055559083929186806122e6565b634e487b7160e01b600052603160045260246000fd5b506122e6565b604051636f49613160e01b8152600490fd5b50806124e684612d57565b1660005260058252604060002033600052825260ff60406000205416156121df565b50338161251485612b93565b1614156121d9565b3461023f5761044561252d366128f9565b91612bb8565b3461023f57600036600319011261023f576020600e54604051908152f35b3461023f57604036600319011261023f5761256a6128cd565b60243561257681612d57565b33151580612625575b806125f8575b6125e0576001600160a01b039283169282918491167f8c5be1e5ebec7d5bd14f71427d1e84f3dd0314c0f7b2291e5b200ac8c7c3b925600080a4600090815260046020526040902080546001600160a01b0319169091179055005b60405163a9fbf51f60e01b8152336004820152602490fd5b5060018060a01b038116600052600560205260406000203360005260205260ff6040600020541615612585565b506001600160a01b03811633141561257f565b3461023f57602036600319011261023f576020611f47600435612b93565b3461023f57600036600319011261023f57604051600080546126778161295c565b80845290600190818116908115611a4257506001146126a0576103d6846119d5818603826129cd565b600080805292507f290decd9548b62a8d60345a988386fc84ba6bc95484008f6362f93160ef3e5635b8284106126e15750505081016020016119d5826119c5565b805460208587018101919091529093019281016126c9565b3461023f5760208060031936011261023f576004356004811015908161023f57600954612725816133c3565b50600092612732826133c3565b9460015b83811115612775578686612749816133c3565b9160005b82811061276257604051806103d6868261284a565b80610acb6127709284613316565b61274d565b80600052600a82528260ff60406000205416906109ed5760048110156109ed5785146127aa575b6127a590612ee0565b612736565b946127bd8187610ad66127a5948b613316565b95905061279c565b3461023f57602036600319011261023f576004359063ffffffff60e01b821680920361023f57602091632483248360e11b8114908115612807575b5015158152f35b6380ac58cd60e01b811491508115612839575b8115612828575b5083612800565b6301ffc9a760e01b14905083612821565b635b5e139f60e01b8114915061281a565b6020908160408183019282815285518094520193019160005b828110612871575050505090565b835185529381019392810192600101612863565b60005b8381106128985750506000910152565b8181015183820152602001612888565b906020916128c181518092818552858086019101612885565b601f01601f1916010190565b600435906001600160a01b038216820361023f57565b602435906001600160a01b038216820361023f57565b606090600319011261023f576001600160a01b0390600435828116810361023f5791602435908116810361023f579060443590565b80548210156129465760005260206000200190600090565b634e487b7160e01b600052603260045260246000fd5b90600182811c9216801561298c575b602083101461297657565b634e487b7160e01b600052602260045260246000fd5b91607f169161296b565b61012081019081106001600160401b0382111761087357604052565b602081019081106001600160401b0382111761087357604052565b90601f801991011681019081106001600160401b0382111761087357604052565b9060405191826000825492612a028461295c565b908184526001948581169081600014612a715750600114612a2e575b5050612a2c925003836129cd565b565b9093915060005260209081600020936000915b818310612a59575050612a2c93508201013880612a1e565b85548884018501529485019487945091830191612a41565b915050612a2c94506020925060ff191682840152151560051b8201013880612a1e565b9060048210156109ed5752565b9060058210156109ed5752565b60048110156109ed57600052600c602052604060002090565b60058110156109ed57600052600d602052604060002090565b6001600160401b03811161087357601f01601f191660200190565b929192612b0782612ae0565b91612b1560405193846129cd565b82948184528183011161023f578281602093846000960137010152565b9080601f8301121561023f57816020612b4d93359101612afb565b90565b6001600160401b0381116108735760051b60200190565b6007546001600160a01b03163303612b7b57565b60405163118cdaa760e01b8152336004820152602490fd5b612b9c81612d57565b506000908152600460205260409020546001600160a01b031690565b6001600160a01b039182169290918315612d3e57600092828452826020956002875260409684888820541696879133151580612ca8575b509060027fddf252ad1be2c89b69c2b068fc378daa952ba7f163c4a11628f55a4df523b3ef9284612c75575b858352600381528b8320805460010190558683525289812080546001600160a01b0319168517905580a41692838303612c545750505050565b6064945051926364283d7b60e01b8452600484015260248301526044820152fd5b600087815260046020526040902080546001600160a01b0319169055848352600381528b83208054600019019055612c1b565b91939450915080612cfd575b15612cc457859291879138612bef565b878688612ce1576024915190637e27328960e01b82526004820152fd5b604491519063177e802f60e01b82523360048301526024820152fd5b503387148015612d22575b80612cb45750858252600481523385898420541614612cb4565b5086825260058152878220338352815260ff8883205416612d08565b604051633250574960e11b815260006004820152602490fd5b6000818152600260205260409020546001600160a01b0316908115612d7a575090565b60249060405190637e27328960e01b82526004820152fd5b90939192833b612da4575b5050505050565b604051630a85bd0160e11b8082526001600160a01b039384166004830152958316602482015260448101919091526080606482015294921692602092918590612df19060848301906128a8565b039483816000978189895af1869181612e9c575b50612e66575050503d600014612e5d573d612e1f81612ae0565b90612e2d60405192836129cd565b81528093823d92013e5b82519283612e5857604051633250574960e11b815260048101849052602490fd5b019050fd5b60609250612e37565b919450915063ffffffff60e01b1603612e8457503880808080612d9d565b60249060405190633250574960e11b82526004820152fd5b9091508481813d8311612ed9575b612eb481836129cd565b81010312612ed557516001600160e01b031981168103612ed5579038612e05565b8680fd5b503d612eaa565b60001981146118435760010190565b60048210156109ed5752565b60058210156109ed5752565b9060058110156109ed5761ff0082549160081b169061ff001916179055565b818110612f31575050565b60008155600101612f26565b90815491680100000000000000008310156108735782612467916001612a2c9501815561292e565b60408051612f72816129b2565b6000808252936001600160a01b0384811694909290851561317b5782875260209360028552858820541683878215159283613148575b818b5260038852888b2080546001019055828b5260028852888b2080546001600160a01b031916831790557fddf252ad1be2c89b69c2b068fc378daa952ba7f163c4a11628f55a4df523b3ef8b80a4613130573b613009575b505050505050565b82613047918596979894955180938192630a85bd0160e11b968784523360048501528c602485015260448401526080606484015260848301906128a8565b03818a8a5af18791816130ec575b506130b5575050503d6000146130ac573d61306f81612ae0565b9061307c845192836129cd565b81528094823d92013e5b835193846130a6578251633250574960e11b815260048101859052602490fd5b84925001fd5b60609350613086565b919550915063ffffffff60e01b16036130d5575050388080808080613001565b602492505190633250574960e11b82526004820152fd5b9091508481813d8311613129575b61310481836129cd565b8101031261312557516001600160e01b031981168103613125579038613055565b8780fd5b503d6130fa565b84516339e3563760e11b815260048101889052602490fd5b600083815260046020526040902080546001600160a01b0319169055808b5260038852888b208054600019019055612fa8565b8451633250574960e11b815260048101889052602490fd5b9190916000908082526020916006835260408120908551906001600160401b0382116132df576131c3835461295c565b601f81116132b1575b508490601f831160011461322d57907ff8e1a15aba9398e019f0b49df1a4fde98ee17ae345cb5f6b5e2c27f5033e8ce7969783613222575b50508160011b916000199060031b1c19161790555b604051908152a1565b015190503880613204565b9196601f198816848452868420935b81811061329a57509160019391897ff8e1a15aba9398e019f0b49df1a4fde98ee17ae345cb5f6b5e2c27f5033e8ce7999a9410613281575b505050811b019055613219565b015160001960f88460031b161c19169055388080613274565b92938760018192878601518155019501930161323c565b6132d990848352868320601f850160051c81019188861061086957601f0160051c0190612f26565b386131cc565b634e487b7160e01b81526041600452602490fd5b600260085414613304576002600855565b604051633ee5aeb560e01b8152600490fd5b80518210156129465760209160051b010190565b8015611843576000190190565b613341815461295c565b908161334b575050565b81601f6000931160011461335d575055565b90808391825261337c601f60208420940160051c840160018501612f26565b5555565b1561338757565b60405162461bcd60e51b8152602060048201526014602482015273151bdad95b88191bd95cc81b9bdd08195e1a5cdd60621b6044820152606490fd5b906133cd82612b50565b6133da60405191826129cd565b82815280926133eb601f1991612b50565b019060203691013756fea264697066735822122045b7ba3b1fdba99f60951cf9373a5ea4fce60ea35e68f94cc62246f49ab6c7af64736f6c63430008140033",
  "linkReferences": {},
  "deployedLinkReferences": {}
}